{
  "contractName": "DogesonRouter",
  "abi": [
    {
      "inputs": [
        {
          "internalType": "address",
          "name": "_factory",
          "type": "address"
        },
        {
          "internalType": "address",
          "name": "_WETH",
          "type": "address"
        }
      ],
      "stateMutability": "nonpayable",
      "type": "constructor"
    },
    {
      "inputs": [],
      "name": "WETH",
      "outputs": [
        {
          "internalType": "address",
          "name": "",
          "type": "address"
        }
      ],
      "stateMutability": "view",
      "type": "function"
    },
    {
      "inputs": [],
      "name": "factory",
      "outputs": [
        {
          "internalType": "address",
          "name": "",
          "type": "address"
        }
      ],
      "stateMutability": "view",
      "type": "function"
    },
    {
      "stateMutability": "payable",
      "type": "receive"
    },
    {
      "inputs": [
        {
          "internalType": "address",
          "name": "tokenA",
          "type": "address"
        },
        {
          "internalType": "address",
          "name": "tokenB",
          "type": "address"
        },
        {
          "internalType": "uint256",
          "name": "amountADesired",
          "type": "uint256"
        },
        {
          "internalType": "uint256",
          "name": "amountBDesired",
          "type": "uint256"
        },
        {
          "internalType": "uint256",
          "name": "amountAMin",
          "type": "uint256"
        },
        {
          "internalType": "uint256",
          "name": "amountBMin",
          "type": "uint256"
        },
        {
          "internalType": "address",
          "name": "to",
          "type": "address"
        },
        {
          "internalType": "uint256",
          "name": "deadline",
          "type": "uint256"
        }
      ],
      "name": "addLiquidity",
      "outputs": [
        {
          "internalType": "uint256",
          "name": "amountA",
          "type": "uint256"
        },
        {
          "internalType": "uint256",
          "name": "amountB",
          "type": "uint256"
        },
        {
          "internalType": "uint256",
          "name": "liquidity",
          "type": "uint256"
        }
      ],
      "stateMutability": "nonpayable",
      "type": "function"
    },
    {
      "inputs": [
        {
          "internalType": "address",
          "name": "token",
          "type": "address"
        },
        {
          "internalType": "uint256",
          "name": "amountTokenDesired",
          "type": "uint256"
        },
        {
          "internalType": "uint256",
          "name": "amountTokenMin",
          "type": "uint256"
        },
        {
          "internalType": "uint256",
          "name": "amountETHMin",
          "type": "uint256"
        },
        {
          "internalType": "address",
          "name": "to",
          "type": "address"
        },
        {
          "internalType": "uint256",
          "name": "deadline",
          "type": "uint256"
        }
      ],
      "name": "addLiquidityETH",
      "outputs": [
        {
          "internalType": "uint256",
          "name": "amountToken",
          "type": "uint256"
        },
        {
          "internalType": "uint256",
          "name": "amountETH",
          "type": "uint256"
        },
        {
          "internalType": "uint256",
          "name": "liquidity",
          "type": "uint256"
        }
      ],
      "stateMutability": "payable",
      "type": "function"
    },
    {
      "inputs": [
        {
          "internalType": "address",
          "name": "tokenA",
          "type": "address"
        },
        {
          "internalType": "address",
          "name": "tokenB",
          "type": "address"
        },
        {
          "internalType": "uint256",
          "name": "liquidity",
          "type": "uint256"
        },
        {
          "internalType": "uint256",
          "name": "amountAMin",
          "type": "uint256"
        },
        {
          "internalType": "uint256",
          "name": "amountBMin",
          "type": "uint256"
        },
        {
          "internalType": "address",
          "name": "to",
          "type": "address"
        },
        {
          "internalType": "uint256",
          "name": "deadline",
          "type": "uint256"
        }
      ],
      "name": "removeLiquidity",
      "outputs": [
        {
          "internalType": "uint256",
          "name": "amountA",
          "type": "uint256"
        },
        {
          "internalType": "uint256",
          "name": "amountB",
          "type": "uint256"
        }
      ],
      "stateMutability": "nonpayable",
      "type": "function"
    },
    {
      "inputs": [
        {
          "internalType": "address",
          "name": "token",
          "type": "address"
        },
        {
          "internalType": "uint256",
          "name": "liquidity",
          "type": "uint256"
        },
        {
          "internalType": "uint256",
          "name": "amountTokenMin",
          "type": "uint256"
        },
        {
          "internalType": "uint256",
          "name": "amountETHMin",
          "type": "uint256"
        },
        {
          "internalType": "address",
          "name": "to",
          "type": "address"
        },
        {
          "internalType": "uint256",
          "name": "deadline",
          "type": "uint256"
        }
      ],
      "name": "removeLiquidityETH",
      "outputs": [
        {
          "internalType": "uint256",
          "name": "amountToken",
          "type": "uint256"
        },
        {
          "internalType": "uint256",
          "name": "amountETH",
          "type": "uint256"
        }
      ],
      "stateMutability": "nonpayable",
      "type": "function"
    },
    {
      "inputs": [
        {
          "internalType": "address",
          "name": "tokenA",
          "type": "address"
        },
        {
          "internalType": "address",
          "name": "tokenB",
          "type": "address"
        },
        {
          "internalType": "uint256",
          "name": "liquidity",
          "type": "uint256"
        },
        {
          "internalType": "uint256",
          "name": "amountAMin",
          "type": "uint256"
        },
        {
          "internalType": "uint256",
          "name": "amountBMin",
          "type": "uint256"
        },
        {
          "internalType": "address",
          "name": "to",
          "type": "address"
        },
        {
          "internalType": "uint256",
          "name": "deadline",
          "type": "uint256"
        },
        {
          "internalType": "bool",
          "name": "approveMax",
          "type": "bool"
        },
        {
          "internalType": "uint8",
          "name": "v",
          "type": "uint8"
        },
        {
          "internalType": "bytes32",
          "name": "r",
          "type": "bytes32"
        },
        {
          "internalType": "bytes32",
          "name": "s",
          "type": "bytes32"
        }
      ],
      "name": "removeLiquidityWithPermit",
      "outputs": [
        {
          "internalType": "uint256",
          "name": "amountA",
          "type": "uint256"
        },
        {
          "internalType": "uint256",
          "name": "amountB",
          "type": "uint256"
        }
      ],
      "stateMutability": "nonpayable",
      "type": "function"
    },
    {
      "inputs": [
        {
          "internalType": "address",
          "name": "token",
          "type": "address"
        },
        {
          "internalType": "uint256",
          "name": "liquidity",
          "type": "uint256"
        },
        {
          "internalType": "uint256",
          "name": "amountTokenMin",
          "type": "uint256"
        },
        {
          "internalType": "uint256",
          "name": "amountETHMin",
          "type": "uint256"
        },
        {
          "internalType": "address",
          "name": "to",
          "type": "address"
        },
        {
          "internalType": "uint256",
          "name": "deadline",
          "type": "uint256"
        },
        {
          "internalType": "bool",
          "name": "approveMax",
          "type": "bool"
        },
        {
          "internalType": "uint8",
          "name": "v",
          "type": "uint8"
        },
        {
          "internalType": "bytes32",
          "name": "r",
          "type": "bytes32"
        },
        {
          "internalType": "bytes32",
          "name": "s",
          "type": "bytes32"
        }
      ],
      "name": "removeLiquidityETHWithPermit",
      "outputs": [
        {
          "internalType": "uint256",
          "name": "amountToken",
          "type": "uint256"
        },
        {
          "internalType": "uint256",
          "name": "amountETH",
          "type": "uint256"
        }
      ],
      "stateMutability": "nonpayable",
      "type": "function"
    },
    {
      "inputs": [
        {
          "internalType": "address",
          "name": "token",
          "type": "address"
        },
        {
          "internalType": "uint256",
          "name": "liquidity",
          "type": "uint256"
        },
        {
          "internalType": "uint256",
          "name": "amountTokenMin",
          "type": "uint256"
        },
        {
          "internalType": "uint256",
          "name": "amountETHMin",
          "type": "uint256"
        },
        {
          "internalType": "address",
          "name": "to",
          "type": "address"
        },
        {
          "internalType": "uint256",
          "name": "deadline",
          "type": "uint256"
        }
      ],
      "name": "removeLiquidityETHSupportingFeeOnTransferTokens",
      "outputs": [
        {
          "internalType": "uint256",
          "name": "amountETH",
          "type": "uint256"
        }
      ],
      "stateMutability": "nonpayable",
      "type": "function"
    },
    {
      "inputs": [
        {
          "internalType": "address",
          "name": "token",
          "type": "address"
        },
        {
          "internalType": "uint256",
          "name": "liquidity",
          "type": "uint256"
        },
        {
          "internalType": "uint256",
          "name": "amountTokenMin",
          "type": "uint256"
        },
        {
          "internalType": "uint256",
          "name": "amountETHMin",
          "type": "uint256"
        },
        {
          "internalType": "address",
          "name": "to",
          "type": "address"
        },
        {
          "internalType": "uint256",
          "name": "deadline",
          "type": "uint256"
        },
        {
          "internalType": "bool",
          "name": "approveMax",
          "type": "bool"
        },
        {
          "internalType": "uint8",
          "name": "v",
          "type": "uint8"
        },
        {
          "internalType": "bytes32",
          "name": "r",
          "type": "bytes32"
        },
        {
          "internalType": "bytes32",
          "name": "s",
          "type": "bytes32"
        }
      ],
      "name": "removeLiquidityETHWithPermitSupportingFeeOnTransferTokens",
      "outputs": [
        {
          "internalType": "uint256",
          "name": "amountETH",
          "type": "uint256"
        }
      ],
      "stateMutability": "nonpayable",
      "type": "function"
    },
    {
      "inputs": [
        {
          "internalType": "uint256",
          "name": "amountIn",
          "type": "uint256"
        },
        {
          "internalType": "uint256",
          "name": "amountOutMin",
          "type": "uint256"
        },
        {
          "internalType": "address[]",
          "name": "path",
          "type": "address[]"
        },
        {
          "internalType": "address",
          "name": "to",
          "type": "address"
        },
        {
          "internalType": "uint256",
          "name": "deadline",
          "type": "uint256"
        }
      ],
      "name": "swapExactTokensForTokens",
      "outputs": [
        {
          "internalType": "uint256[]",
          "name": "amounts",
          "type": "uint256[]"
        }
      ],
      "stateMutability": "nonpayable",
      "type": "function"
    },
    {
      "inputs": [
        {
          "internalType": "uint256",
          "name": "amountOut",
          "type": "uint256"
        },
        {
          "internalType": "uint256",
          "name": "amountInMax",
          "type": "uint256"
        },
        {
          "internalType": "address[]",
          "name": "path",
          "type": "address[]"
        },
        {
          "internalType": "address",
          "name": "to",
          "type": "address"
        },
        {
          "internalType": "uint256",
          "name": "deadline",
          "type": "uint256"
        }
      ],
      "name": "swapTokensForExactTokens",
      "outputs": [
        {
          "internalType": "uint256[]",
          "name": "amounts",
          "type": "uint256[]"
        }
      ],
      "stateMutability": "nonpayable",
      "type": "function"
    },
    {
      "inputs": [
        {
          "internalType": "uint256",
          "name": "amountOutMin",
          "type": "uint256"
        },
        {
          "internalType": "address[]",
          "name": "path",
          "type": "address[]"
        },
        {
          "internalType": "address",
          "name": "to",
          "type": "address"
        },
        {
          "internalType": "uint256",
          "name": "deadline",
          "type": "uint256"
        }
      ],
      "name": "swapExactETHForTokens",
      "outputs": [
        {
          "internalType": "uint256[]",
          "name": "amounts",
          "type": "uint256[]"
        }
      ],
      "stateMutability": "payable",
      "type": "function"
    },
    {
      "inputs": [
        {
          "internalType": "uint256",
          "name": "amountOut",
          "type": "uint256"
        },
        {
          "internalType": "uint256",
          "name": "amountInMax",
          "type": "uint256"
        },
        {
          "internalType": "address[]",
          "name": "path",
          "type": "address[]"
        },
        {
          "internalType": "address",
          "name": "to",
          "type": "address"
        },
        {
          "internalType": "uint256",
          "name": "deadline",
          "type": "uint256"
        }
      ],
      "name": "swapTokensForExactETH",
      "outputs": [
        {
          "internalType": "uint256[]",
          "name": "amounts",
          "type": "uint256[]"
        }
      ],
      "stateMutability": "nonpayable",
      "type": "function"
    },
    {
      "inputs": [
        {
          "internalType": "uint256",
          "name": "amountIn",
          "type": "uint256"
        },
        {
          "internalType": "uint256",
          "name": "amountOutMin",
          "type": "uint256"
        },
        {
          "internalType": "address[]",
          "name": "path",
          "type": "address[]"
        },
        {
          "internalType": "address",
          "name": "to",
          "type": "address"
        },
        {
          "internalType": "uint256",
          "name": "deadline",
          "type": "uint256"
        }
      ],
      "name": "swapExactTokensForETH",
      "outputs": [
        {
          "internalType": "uint256[]",
          "name": "amounts",
          "type": "uint256[]"
        }
      ],
      "stateMutability": "nonpayable",
      "type": "function"
    },
    {
      "inputs": [
        {
          "internalType": "uint256",
          "name": "amountOut",
          "type": "uint256"
        },
        {
          "internalType": "address[]",
          "name": "path",
          "type": "address[]"
        },
        {
          "internalType": "address",
          "name": "to",
          "type": "address"
        },
        {
          "internalType": "uint256",
          "name": "deadline",
          "type": "uint256"
        }
      ],
      "name": "swapETHForExactTokens",
      "outputs": [
        {
          "internalType": "uint256[]",
          "name": "amounts",
          "type": "uint256[]"
        }
      ],
      "stateMutability": "payable",
      "type": "function"
    },
    {
      "inputs": [
        {
          "internalType": "uint256",
          "name": "amountIn",
          "type": "uint256"
        },
        {
          "internalType": "uint256",
          "name": "amountOutMin",
          "type": "uint256"
        },
        {
          "internalType": "address[]",
          "name": "path",
          "type": "address[]"
        },
        {
          "internalType": "address",
          "name": "to",
          "type": "address"
        },
        {
          "internalType": "uint256",
          "name": "deadline",
          "type": "uint256"
        }
      ],
      "name": "swapExactTokensForTokensSupportingFeeOnTransferTokens",
      "outputs": [],
      "stateMutability": "nonpayable",
      "type": "function"
    },
    {
      "inputs": [
        {
          "internalType": "uint256",
          "name": "amountOutMin",
          "type": "uint256"
        },
        {
          "internalType": "address[]",
          "name": "path",
          "type": "address[]"
        },
        {
          "internalType": "address",
          "name": "to",
          "type": "address"
        },
        {
          "internalType": "uint256",
          "name": "deadline",
          "type": "uint256"
        }
      ],
      "name": "swapExactETHForTokensSupportingFeeOnTransferTokens",
      "outputs": [],
      "stateMutability": "payable",
      "type": "function"
    },
    {
      "inputs": [
        {
          "internalType": "uint256",
          "name": "amountIn",
          "type": "uint256"
        },
        {
          "internalType": "uint256",
          "name": "amountOutMin",
          "type": "uint256"
        },
        {
          "internalType": "address[]",
          "name": "path",
          "type": "address[]"
        },
        {
          "internalType": "address",
          "name": "to",
          "type": "address"
        },
        {
          "internalType": "uint256",
          "name": "deadline",
          "type": "uint256"
        }
      ],
      "name": "swapExactTokensForETHSupportingFeeOnTransferTokens",
      "outputs": [],
      "stateMutability": "nonpayable",
      "type": "function"
    },
    {
      "inputs": [
        {
          "internalType": "uint256",
          "name": "amountA",
          "type": "uint256"
        },
        {
          "internalType": "uint256",
          "name": "reserveA",
          "type": "uint256"
        },
        {
          "internalType": "uint256",
          "name": "reserveB",
          "type": "uint256"
        }
      ],
      "name": "quote",
      "outputs": [
        {
          "internalType": "uint256",
          "name": "amountB",
          "type": "uint256"
        }
      ],
      "stateMutability": "pure",
      "type": "function"
    },
    {
      "inputs": [
        {
          "internalType": "uint256",
          "name": "amountIn",
          "type": "uint256"
        },
        {
          "internalType": "uint256",
          "name": "reserveIn",
          "type": "uint256"
        },
        {
          "internalType": "uint256",
          "name": "reserveOut",
          "type": "uint256"
        },
        {
          "internalType": "uint256",
          "name": "swapFee",
          "type": "uint256"
        }
      ],
      "name": "getAmountOut",
      "outputs": [
        {
          "internalType": "uint256",
          "name": "amountOut",
          "type": "uint256"
        }
      ],
      "stateMutability": "pure",
      "type": "function"
    },
    {
      "inputs": [
        {
          "internalType": "uint256",
          "name": "amountOut",
          "type": "uint256"
        },
        {
          "internalType": "uint256",
          "name": "reserveIn",
          "type": "uint256"
        },
        {
          "internalType": "uint256",
          "name": "reserveOut",
          "type": "uint256"
        },
        {
          "internalType": "uint256",
          "name": "swapFee",
          "type": "uint256"
        }
      ],
      "name": "getAmountIn",
      "outputs": [
        {
          "internalType": "uint256",
          "name": "amountIn",
          "type": "uint256"
        }
      ],
      "stateMutability": "pure",
      "type": "function"
    },
    {
      "inputs": [
        {
          "internalType": "uint256",
          "name": "amountIn",
          "type": "uint256"
        },
        {
          "internalType": "address[]",
          "name": "path",
          "type": "address[]"
        }
      ],
      "name": "getAmountsOut",
      "outputs": [
        {
          "internalType": "uint256[]",
          "name": "amounts",
          "type": "uint256[]"
        }
      ],
      "stateMutability": "view",
      "type": "function"
    },
    {
      "inputs": [
        {
          "internalType": "uint256",
          "name": "amountOut",
          "type": "uint256"
        },
        {
          "internalType": "address[]",
          "name": "path",
          "type": "address[]"
        }
      ],
      "name": "getAmountsIn",
      "outputs": [
        {
          "internalType": "uint256[]",
          "name": "amounts",
          "type": "uint256[]"
        }
      ],
      "stateMutability": "view",
      "type": "function"
    }
  ],
  "bytecode": "0x60c060405234801561001057600080fd5b5060405162004938380380620049388339818101604052604081101561003557600080fd5b5080516020909101516001600160601b0319606092831b8116608052911b1660a05260805160601c60a05160601c6147ae6200018a6000398061015f5280610cf05280610d2b5280610e0d528061102b52806113b5528061154052806119075280611a015280611ab75280611b855280611ccb5280611d535280611f8b528061200e52806120bd5280612189528061221e528061229252806127905280612a035280612a595280612a8d5280612b015280612ca15280612de45280612e6c525080610e9b5280610f7252806110f1528061112a52806112655280611443528061151e528061168e5280611c185280611d855280611edb52806122c4528061251d5280612715528061273e528061276e52806128db5280612a375280612d345280612e9e528061367352806136b65280613b6e5280613c4a5280613dca528061410a52806141b8528061423852506147ae6000f3fe60806040526004361061014f5760003560e01c80638803dbee116100b6578063c45a01551161006f578063c45a015514610a1c578063d06ca61f14610a31578063ded9382a14610ae6578063e8e3370014610b59578063f305d71914610bd9578063fb3bdb4114610c1f57610188565b80638803dbee146107eb578063ad5c464814610881578063ad615dec146108b2578063af2979eb146108e8578063b6f9de951461093b578063baa2abde146109bf57610188565b806352707d8c1161010857806352707d8c1461053e578063571fd0121461058c5780635b0d5984146105c85780635c11d7951461063b578063791ac947146106d15780637ff36ab51461076757610188565b806302751cec1461018d57806318cbafe5146101f95780631f00ca74146102df5780632195995c1461039457806338ed1739146104125780634a25d94a146104a857610188565b3661018857336001600160a01b037f0000000000000000000000000000000000000000000000000000000000000000161461018657fe5b005b600080fd5b34801561019957600080fd5b506101e0600480360360c08110156101b057600080fd5b506001600160a01b0381358116916020810135916040820135916060810135916080820135169060a00135610ca3565b6040805192835260208301919091528051918290030190f35b34801561020557600080fd5b5061028f600480360360a081101561021c57600080fd5b813591602081013591810190606081016040820135600160201b81111561024257600080fd5b82018360208201111561025457600080fd5b803590602001918460208302840111600160201b8311171561027557600080fd5b91935091506001600160a01b038135169060200135610dbd565b60408051602080825283518183015283519192839290830191858101910280838360005b838110156102cb5781810151838201526020016102b3565b505050509050019250505060405180910390f35b3480156102eb57600080fd5b5061028f6004803603604081101561030257600080fd5b81359190810190604081016020820135600160201b81111561032357600080fd5b82018360208201111561033557600080fd5b803590602001918460208302840111600160201b8311171561035657600080fd5b9190808060200260200160405190810160405280939291908181526020018383602002808284376000920191909152509295506110ea945050505050565b3480156103a057600080fd5b506101e060048036036101608110156103b857600080fd5b506001600160a01b038135811691602081013582169160408201359160608101359160808201359160a08101359091169060c08101359060e081013515159060ff6101008201351690610120810135906101400135611120565b34801561041e57600080fd5b5061028f600480360360a081101561043557600080fd5b813591602081013591810190606081016040820135600160201b81111561045b57600080fd5b82018360208201111561046d57600080fd5b803590602001918460208302840111600160201b8311171561048e57600080fd5b91935091506001600160a01b03813516906020013561121a565b3480156104b457600080fd5b5061028f600480360360a08110156104cb57600080fd5b813591602081013591810190606081016040820135600160201b8111156104f157600080fd5b82018360208201111561050357600080fd5b803590602001918460208302840111600160201b8311171561052457600080fd5b91935091506001600160a01b038135169060200135611365565b34801561054a57600080fd5b5061057a6004803603608081101561056157600080fd5b50803590602081013590604081013590606001356114f1565b60408051918252519081900360200190f35b34801561059857600080fd5b5061057a600480360360808110156105af57600080fd5b5080359060208101359060408101359060600135611508565b3480156105d457600080fd5b5061057a60048036036101408110156105ec57600080fd5b506001600160a01b0381358116916020810135916040820135916060810135916080820135169060a08101359060c081013515159060ff60e08201351690610100810135906101200135611516565b34801561064757600080fd5b50610186600480360360a081101561065e57600080fd5b813591602081013591810190606081016040820135600160201b81111561068457600080fd5b82018360208201111561069657600080fd5b803590602001918460208302840111600160201b831117156106b757600080fd5b91935091506001600160a01b038135169060200135611624565b3480156106dd57600080fd5b50610186600480360360a08110156106f457600080fd5b813591602081013591810190606081016040820135600160201b81111561071a57600080fd5b82018360208201111561072c57600080fd5b803590602001918460208302840111600160201b8311171561074d57600080fd5b91935091506001600160a01b0381351690602001356118b9565b61028f6004803603608081101561077d57600080fd5b81359190810190604081016020820135600160201b81111561079e57600080fd5b8201836020820111156107b057600080fd5b803590602001918460208302840111600160201b831117156107d157600080fd5b91935091506001600160a01b038135169060200135611b3d565b3480156107f757600080fd5b5061028f600480360360a081101561080e57600080fd5b813591602081013591810190606081016040820135600160201b81111561083457600080fd5b82018360208201111561084657600080fd5b803590602001918460208302840111600160201b8311171561086757600080fd5b91935091506001600160a01b038135169060200135611e90565b34801561088d57600080fd5b50610896611f89565b604080516001600160a01b039092168252519081900360200190f35b3480156108be57600080fd5b5061057a600480360360608110156108d557600080fd5b5080359060208101359060400135611fad565b3480156108f457600080fd5b5061057a600480360360c081101561090b57600080fd5b506001600160a01b0381358116916020810135916040820135916060810135916080820135169060a00135611fc2565b6101866004803603608081101561095157600080fd5b81359190810190604081016020820135600160201b81111561097257600080fd5b82018360208201111561098457600080fd5b803590602001918460208302840111600160201b831117156109a557600080fd5b91935091506001600160a01b038135169060200135612143565b3480156109cb57600080fd5b506101e0600480360360e08110156109e257600080fd5b506001600160a01b038135811691602081013582169160408201359160608101359160808201359160a08101359091169060c001356124cf565b348015610a2857600080fd5b50610896612713565b348015610a3d57600080fd5b5061028f60048036036040811015610a5457600080fd5b81359190810190604081016020820135600160201b811115610a7557600080fd5b820183602082011115610a8757600080fd5b803590602001918460208302840111600160201b83111715610aa857600080fd5b919080806020026020016040519081016040528093929190818152602001838360200280828437600092019190915250929550612737945050505050565b348015610af257600080fd5b506101e06004803603610140811015610b0a57600080fd5b506001600160a01b0381358116916020810135916040820135916060810135916080820135169060a08101359060c081013515159060ff60e08201351690610100810135906101200135612764565b348015610b6557600080fd5b50610bbb6004803603610100811015610b7d57600080fd5b506001600160a01b038135811691602081013582169160408201359160608101359160808201359160a08101359160c0820135169060e00135612878565b60408051938452602084019290925282820152519081900360600190f35b610bbb600480360360c0811015610bef57600080fd5b506001600160a01b0381358116916020810135916040820135916060810135916080820135169060a001356129b4565b61028f60048036036080811015610c3557600080fd5b81359190810190604081016020820135600160201b811115610c5657600080fd5b820183602082011115610c6857600080fd5b803590602001918460208302840111600160201b83111715610c8957600080fd5b91935091506001600160a01b038135169060200135612c59565b6000808242811015610cea576040805162461bcd60e51b8152602060048201526016602482015260008051602061462d833981519152604482015290519081900360640190fd5b610d19897f00000000000000000000000000000000000000000000000000000000000000008a8a8a308a6124cf565b9093509150610d29898685612fdb565b7f00000000000000000000000000000000000000000000000000000000000000006001600160a01b0316632e1a7d4d836040518263ffffffff1660e01b815260040180828152602001915050600060405180830381600087803b158015610d8f57600080fd5b505af1158015610da3573d6000803e3d6000fd5b50505050610db1858361312f565b50965096945050505050565b60608142811015610e03576040805162461bcd60e51b8152602060048201526016602482015260008051602061462d833981519152604482015290519081900360640190fd5b6001600160a01b037f00000000000000000000000000000000000000000000000000000000000000001686866000198101818110610e3d57fe5b905060200201356001600160a01b03166001600160a01b031614610e96576040805162461bcd60e51b815260206004820152601b602482015260008051602061472f833981519152604482015290519081900360640190fd5b610ef47f00000000000000000000000000000000000000000000000000000000000000008988888080602002602001604051908101604052809392919081815260200183836020028082843760009201919091525061322792505050565b91508682600184510381518110610f0757fe5b60200260200101511015610f4c5760405162461bcd60e51b81526004018080602001828103825260298152602001806145a76029913960400191505060405180910390fd5b610fea86866000818110610f5c57fe5b905060200201356001600160a01b031633610fd07f00000000000000000000000000000000000000000000000000000000000000008a8a6000818110610f9e57fe5b905060200201356001600160a01b03168b8b6001818110610fbb57fe5b905060200201356001600160a01b03166133a7565b85600081518110610fdd57fe5b6020026020010151613467565b611029828787808060200260200160405190810160405280939291908181526020018383602002808284376000920191909152503092506135c4915050565b7f00000000000000000000000000000000000000000000000000000000000000006001600160a01b0316632e1a7d4d8360018551038151811061106857fe5b60200260200101516040518263ffffffff1660e01b815260040180828152602001915050600060405180830381600087803b1580156110a657600080fd5b505af11580156110ba573d6000803e3d6000fd5b505050506110df84836001855103815181106110d257fe5b602002602001015161312f565b509695505050505050565b60606111177f0000000000000000000000000000000000000000000000000000000000000000848461380a565b90505b92915050565b60008060006111507f00000000000000000000000000000000000000000000000000000000000000008f8f6133a7565b905060008761115f578c611163565b6000195b6040805163d505accf60e01b815233600482015230602482015260448101839052606481018c905260ff8a16608482015260a4810189905260c4810188905290519192506001600160a01b0384169163d505accf9160e48082019260009290919082900301818387803b1580156111d957600080fd5b505af11580156111ed573d6000803e3d6000fd5b505050506112008f8f8f8f8f8f8f6124cf565b809450819550505050509b509b9950505050505050505050565b60608142811015611260576040805162461bcd60e51b8152602060048201526016602482015260008051602061462d833981519152604482015290519081900360640190fd5b6112be7f00000000000000000000000000000000000000000000000000000000000000008988888080602002602001604051908101604052809392919081815260200183836020028082843760009201919091525061322792505050565b915086826001845103815181106112d157fe5b602002602001015110156113165760405162461bcd60e51b81526004018080602001828103825260298152602001806145a76029913960400191505060405180910390fd5b61132686866000818110610f5c57fe5b6110df828787808060200260200160405190810160405280939291908181526020018383602002808284376000920191909152508992506135c4915050565b606081428110156113ab576040805162461bcd60e51b8152602060048201526016602482015260008051602061462d833981519152604482015290519081900360640190fd5b6001600160a01b037f000000000000000000000000000000000000000000000000000000000000000016868660001981018181106113e557fe5b905060200201356001600160a01b03166001600160a01b03161461143e576040805162461bcd60e51b815260206004820152601b602482015260008051602061472f833981519152604482015290519081900360640190fd5b61149c7f00000000000000000000000000000000000000000000000000000000000000008988888080602002602001604051908101604052809392919081815260200183836020028082843760009201919091525061380a92505050565b915086826000815181106114ac57fe5b60200260200101511115610f4c5760405162461bcd60e51b81526004018080602001828103825260258152602001806146dd6025913960400191505060405180910390fd5b60006114ff85858585613969565b95945050505050565b60006114ff85858585613a6a565b6000806115647f00000000000000000000000000000000000000000000000000000000000000008d7f00000000000000000000000000000000000000000000000000000000000000006133a7565b9050600086611573578b611577565b6000195b6040805163d505accf60e01b815233600482015230602482015260448101839052606481018b905260ff8916608482015260a4810188905260c4810187905290519192506001600160a01b0384169163d505accf9160e48082019260009290919082900301818387803b1580156115ed57600080fd5b505af1158015611601573d6000803e3d6000fd5b505050506116138d8d8d8d8d8d611fc2565b9d9c50505050505050505050505050565b8042811015611668576040805162461bcd60e51b8152602060048201526016602482015260008051602061462d833981519152604482015290519081900360640190fd5b6116dd8585600081811061167857fe5b905060200201356001600160a01b0316336116d77f0000000000000000000000000000000000000000000000000000000000000000898960008181106116ba57fe5b905060200201356001600160a01b03168a8a6001818110610fbb57fe5b8a613467565b6000858560001981018181106116ef57fe5b905060200201356001600160a01b03166001600160a01b03166370a08231856040518263ffffffff1660e01b815260040180826001600160a01b03166001600160a01b0316815260200191505060206040518083038186803b15801561175457600080fd5b505afa158015611768573d6000803e3d6000fd5b505050506040513d602081101561177e57600080fd5b505160408051602088810282810182019093528882529293506117c0929091899189918291850190849080828437600092019190915250889250613b6a915050565b8661187282888860001981018181106117d557fe5b905060200201356001600160a01b03166001600160a01b03166370a08231886040518263ffffffff1660e01b815260040180826001600160a01b03166001600160a01b0316815260200191505060206040518083038186803b15801561183a57600080fd5b505afa15801561184e573d6000803e3d6000fd5b505050506040513d602081101561186457600080fd5b50519063ffffffff613eff16565b10156118af5760405162461bcd60e51b81526004018080602001828103825260298152602001806145a76029913960400191505060405180910390fd5b5050505050505050565b80428110156118fd576040805162461bcd60e51b8152602060048201526016602482015260008051602061462d833981519152604482015290519081900360640190fd5b6001600160a01b037f0000000000000000000000000000000000000000000000000000000000000000168585600019810181811061193757fe5b905060200201356001600160a01b03166001600160a01b031614611990576040805162461bcd60e51b815260206004820152601b602482015260008051602061472f833981519152604482015290519081900360640190fd5b6119a08585600081811061167857fe5b6119de858580806020026020016040519081016040528093929190818152602001838360200280828437600092019190915250309250613b6a915050565b604080516370a0823160e01b815230600482015290516000916001600160a01b037f000000000000000000000000000000000000000000000000000000000000000016916370a0823191602480820192602092909190829003018186803b158015611a4857600080fd5b505afa158015611a5c573d6000803e3d6000fd5b505050506040513d6020811015611a7257600080fd5b5051905086811015611ab55760405162461bcd60e51b81526004018080602001828103825260298152602001806145a76029913960400191505060405180910390fd5b7f00000000000000000000000000000000000000000000000000000000000000006001600160a01b0316632e1a7d4d826040518263ffffffff1660e01b815260040180828152602001915050600060405180830381600087803b158015611b1b57600080fd5b505af1158015611b2f573d6000803e3d6000fd5b505050506118af848261312f565b60608142811015611b83576040805162461bcd60e51b8152602060048201526016602482015260008051602061462d833981519152604482015290519081900360640190fd5b7f00000000000000000000000000000000000000000000000000000000000000006001600160a01b031686866000818110611bba57fe5b905060200201356001600160a01b03166001600160a01b031614611c13576040805162461bcd60e51b815260206004820152601b602482015260008051602061472f833981519152604482015290519081900360640190fd5b611c717f00000000000000000000000000000000000000000000000000000000000000003488888080602002602001604051908101604052809392919081815260200183836020028082843760009201919091525061322792505050565b91508682600184510381518110611c8457fe5b60200260200101511015611cc95760405162461bcd60e51b81526004018080602001828103825260298152602001806145a76029913960400191505060405180910390fd5b7f00000000000000000000000000000000000000000000000000000000000000006001600160a01b031663d0e30db083600081518110611d0557fe5b60200260200101516040518263ffffffff1660e01b81526004016000604051808303818588803b158015611d3857600080fd5b505af1158015611d4c573d6000803e3d6000fd5b50505050507f00000000000000000000000000000000000000000000000000000000000000006001600160a01b031663a9059cbb611db17f0000000000000000000000000000000000000000000000000000000000000000898960008181106116ba57fe5b84600081518110611dbe57fe5b60200260200101516040518363ffffffff1660e01b815260040180836001600160a01b03166001600160a01b0316815260200182815260200192505050602060405180830381600087803b158015611e1557600080fd5b505af1158015611e29573d6000803e3d6000fd5b505050506040513d6020811015611e3f57600080fd5b5051611e4757fe5b611e86828787808060200260200160405190810160405280939291908181526020018383602002808284376000920191909152508992506135c4915050565b5095945050505050565b60608142811015611ed6576040805162461bcd60e51b8152602060048201526016602482015260008051602061462d833981519152604482015290519081900360640190fd5b611f347f00000000000000000000000000000000000000000000000000000000000000008988888080602002602001604051908101604052809392919081815260200183836020028082843760009201919091525061380a92505050565b91508682600081518110611f4457fe5b602002602001015111156113165760405162461bcd60e51b81526004018080602001828103825260258152602001806146dd6025913960400191505060405180910390fd5b7f000000000000000000000000000000000000000000000000000000000000000081565b6000611fba848484613f4f565b949350505050565b60008142811015612008576040805162461bcd60e51b8152602060048201526016602482015260008051602061462d833981519152604482015290519081900360640190fd5b612037887f000000000000000000000000000000000000000000000000000000000000000089898930896124cf565b604080516370a0823160e01b815230600482015290519194506120bb92508a9187916001600160a01b038416916370a0823191602480820192602092909190829003018186803b15801561208a57600080fd5b505afa15801561209e573d6000803e3d6000fd5b505050506040513d60208110156120b457600080fd5b5051612fdb565b7f00000000000000000000000000000000000000000000000000000000000000006001600160a01b0316632e1a7d4d836040518263ffffffff1660e01b815260040180828152602001915050600060405180830381600087803b15801561212157600080fd5b505af1158015612135573d6000803e3d6000fd5b505050506110df848361312f565b8042811015612187576040805162461bcd60e51b8152602060048201526016602482015260008051602061462d833981519152604482015290519081900360640190fd5b7f00000000000000000000000000000000000000000000000000000000000000006001600160a01b0316858560008181106121be57fe5b905060200201356001600160a01b03166001600160a01b031614612217576040805162461bcd60e51b815260206004820152601b602482015260008051602061472f833981519152604482015290519081900360640190fd5b60003490507f00000000000000000000000000000000000000000000000000000000000000006001600160a01b031663d0e30db0826040518263ffffffff1660e01b81526004016000604051808303818588803b15801561227757600080fd5b505af115801561228b573d6000803e3d6000fd5b50505050507f00000000000000000000000000000000000000000000000000000000000000006001600160a01b031663a9059cbb6122f07f0000000000000000000000000000000000000000000000000000000000000000898960008181106116ba57fe5b836040518363ffffffff1660e01b815260040180836001600160a01b03166001600160a01b0316815260200182815260200192505050602060405180830381600087803b15801561234057600080fd5b505af1158015612354573d6000803e3d6000fd5b505050506040513d602081101561236a57600080fd5b505161237257fe5b60008686600019810181811061238457fe5b905060200201356001600160a01b03166001600160a01b03166370a08231866040518263ffffffff1660e01b815260040180826001600160a01b03166001600160a01b0316815260200191505060206040518083038186803b1580156123e957600080fd5b505afa1580156123fd573d6000803e3d6000fd5b505050506040513d602081101561241357600080fd5b505160408051602089810282810182019093528982529293506124559290918a918a918291850190849080828437600092019190915250899250613b6a915050565b87611872828989600019810181811061246a57fe5b905060200201356001600160a01b03166001600160a01b03166370a08231896040518263ffffffff1660e01b815260040180826001600160a01b03166001600160a01b0316815260200191505060206040518083038186803b15801561183a57600080fd5b6000808242811015612516576040805162461bcd60e51b8152602060048201526016602482015260008051602061462d833981519152604482015290519081900360640190fd5b60006125437f00000000000000000000000000000000000000000000000000000000000000008c8c6133a7565b604080516323b872dd60e01b81523360048201526001600160a01b03831660248201819052604482018d9052915192935090916323b872dd916064808201926020929091908290030181600087803b15801561259e57600080fd5b505af11580156125b2573d6000803e3d6000fd5b505050506040513d60208110156125c857600080fd5b50506040805163226bf2d160e21b81526001600160a01b03888116600483015282516000938493928616926389afcb44926024808301939282900301818787803b15801561261557600080fd5b505af1158015612629573d6000803e3d6000fd5b505050506040513d604081101561263f57600080fd5b508051602090910151909250905060006126598e8e613ffb565b509050806001600160a01b03168e6001600160a01b03161461267c57818361267f565b82825b90975095508a8710156126c35760405162461bcd60e51b81526004018080602001828103825260248152602001806145526024913960400191505060405180910390fd5b898610156127025760405162461bcd60e51b81526004018080602001828103825260248152602001806146b96024913960400191505060405180910390fd5b505050505097509795505050505050565b7f000000000000000000000000000000000000000000000000000000000000000081565b60606111177f00000000000000000000000000000000000000000000000000000000000000008484613227565b60008060006127b47f00000000000000000000000000000000000000000000000000000000000000008e7f00000000000000000000000000000000000000000000000000000000000000006133a7565b90506000876127c3578c6127c7565b6000195b6040805163d505accf60e01b815233600482015230602482015260448101839052606481018c905260ff8a16608482015260a4810189905260c4810188905290519192506001600160a01b0384169163d505accf9160e48082019260009290919082900301818387803b15801561283d57600080fd5b505af1158015612851573d6000803e3d6000fd5b505050506128638e8e8e8e8e8e610ca3565b909f909e509c50505050505050505050505050565b600080600083428110156128c1576040805162461bcd60e51b8152602060048201526016602482015260008051602061462d833981519152604482015290519081900360640190fd5b6128cf8c8c8c8c8c8c6140d9565b909450925060006129017f00000000000000000000000000000000000000000000000000000000000000008e8e6133a7565b905061290f8d338388613467565b61291b8c338387613467565b806001600160a01b0316636a627842886040518263ffffffff1660e01b815260040180826001600160a01b03166001600160a01b03168152602001915050602060405180830381600087803b15801561297357600080fd5b505af1158015612987573d6000803e3d6000fd5b505050506040513d602081101561299d57600080fd5b5051949d939c50939a509198505050505050505050565b600080600083428110156129fd576040805162461bcd60e51b8152602060048201526016602482015260008051602061462d833981519152604482015290519081900360640190fd5b612a2b8a7f00000000000000000000000000000000000000000000000000000000000000008b348c8c6140d9565b90945092506000612a7d7f00000000000000000000000000000000000000000000000000000000000000008c7f00000000000000000000000000000000000000000000000000000000000000006133a7565b9050612a8b8b338388613467565b7f00000000000000000000000000000000000000000000000000000000000000006001600160a01b031663d0e30db0856040518263ffffffff1660e01b81526004016000604051808303818588803b158015612ae657600080fd5b505af1158015612afa573d6000803e3d6000fd5b50505050507f00000000000000000000000000000000000000000000000000000000000000006001600160a01b031663a9059cbb82866040518363ffffffff1660e01b815260040180836001600160a01b03166001600160a01b0316815260200182815260200192505050602060405180830381600087803b158015612b7f57600080fd5b505af1158015612b93573d6000803e3d6000fd5b505050506040513d6020811015612ba957600080fd5b5051612bb157fe5b806001600160a01b0316636a627842886040518263ffffffff1660e01b815260040180826001600160a01b03166001600160a01b03168152602001915050602060405180830381600087803b158015612c0957600080fd5b505af1158015612c1d573d6000803e3d6000fd5b505050506040513d6020811015612c3357600080fd5b5051925034841015612c4b57612c4b3385340361312f565b505096509650969350505050565b60608142811015612c9f576040805162461bcd60e51b8152602060048201526016602482015260008051602061462d833981519152604482015290519081900360640190fd5b7f00000000000000000000000000000000000000000000000000000000000000006001600160a01b031686866000818110612cd657fe5b905060200201356001600160a01b03166001600160a01b031614612d2f576040805162461bcd60e51b815260206004820152601b602482015260008051602061472f833981519152604482015290519081900360640190fd5b612d8d7f00000000000000000000000000000000000000000000000000000000000000008888888080602002602001604051908101604052809392919081815260200183836020028082843760009201919091525061380a92505050565b91503482600081518110612d9d57fe5b60200260200101511115612de25760405162461bcd60e51b81526004018080602001828103825260258152602001806146dd6025913960400191505060405180910390fd5b7f00000000000000000000000000000000000000000000000000000000000000006001600160a01b031663d0e30db083600081518110612e1e57fe5b60200260200101516040518263ffffffff1660e01b81526004016000604051808303818588803b158015612e5157600080fd5b505af1158015612e65573d6000803e3d6000fd5b50505050507f00000000000000000000000000000000000000000000000000000000000000006001600160a01b031663a9059cbb612eca7f0000000000000000000000000000000000000000000000000000000000000000898960008181106116ba57fe5b84600081518110612ed757fe5b60200260200101516040518363ffffffff1660e01b815260040180836001600160a01b03166001600160a01b0316815260200182815260200192505050602060405180830381600087803b158015612f2e57600080fd5b505af1158015612f42573d6000803e3d6000fd5b505050506040513d6020811015612f5857600080fd5b5051612f6057fe5b612f9f828787808060200260200160405190810160405280939291908181526020018383602002808284376000920191909152508992506135c4915050565b81600081518110612fac57fe5b6020026020010151341115611e8657611e863383600081518110612fcc57fe5b6020026020010151340361312f565b604080516001600160a01b038481166024830152604480830185905283518084039091018152606490920183526020820180516001600160e01b031663a9059cbb60e01b178152925182516000946060949389169392918291908083835b602083106130585780518252601f199092019160209182019101613039565b6001836020036101000a0380198251168184511680821785525050505050509050019150506000604051808303816000865af19150503d80600081146130ba576040519150601f19603f3d011682016040523d82523d6000602084013e6130bf565b606091505b50915091508180156130ed5750805115806130ed57508080602001905160208110156130ea57600080fd5b50515b6131285760405162461bcd60e51b815260040180806020018281038252602d815260200180614702602d913960400191505060405180910390fd5b5050505050565b604080516000808252602082019092526001600160a01b0384169083906040518082805190602001908083835b6020831061317b5780518252601f19909201916020918201910161315c565b6001836020036101000a03801982511681845116808217855250505050505090500191505060006040518083038185875af1925050503d80600081146131dd576040519150601f19603f3d011682016040523d82523d6000602084013e6131e2565b606091505b50509050806132225760405162461bcd60e51b81526004018080602001828103825260348152602001806145d06034913960400191505060405180910390fd5b505050565b6060600282511015613280576040805162461bcd60e51b815260206004820152601c60248201527f446f6765736f6e4c6962726172793a20494e56414c49445f5041544800000000604482015290519081900360640190fd5b815167ffffffffffffffff8111801561329857600080fd5b506040519080825280602002602001820160405280156132c2578160200160208202803683370190505b50905082816000815181106132d357fe5b60200260200101818152505060005b600183510381101561339f576000806133258786858151811061330157fe5b602002602001015187866001018151811061331857fe5b602002602001015161434d565b9150915061337b84848151811061333857fe5b602002602001015183836133768b8a898151811061335257fe5b60200260200101518b8a6001018151811061336957fe5b6020026020010151614420565b613969565b84846001018151811061338a57fe5b602090810291909101015250506001016132e2565b509392505050565b60008060006133b68585613ffb565b604080516bffffffffffffffffffffffff19606094851b811660208084019190915293851b81166034830152825160288184030181526048830184528051908501206001600160f81b031960688401529a90941b9093166069840152607d8301989098527fa2ce3d0e514cdb57c22b91f662b1e55744b9fb8b679c71ea97804d118ac25a2d609d808401919091528851808403909101815260bd909201909752805196019590952095945050505050565b604080516001600160a01b0385811660248301528481166044830152606480830185905283518084039091018152608490920183526020820180516001600160e01b03166323b872dd60e01b17815292518251600094606094938a169392918291908083835b602083106134ec5780518252601f1990920191602091820191016134cd565b6001836020036101000a0380198251168184511680821785525050505050509050019150506000604051808303816000865af19150503d806000811461354e576040519150601f19603f3d011682016040523d82523d6000602084013e613553565b606091505b5091509150818015613581575080511580613581575080806020019051602081101561357e57600080fd5b50515b6135bc5760405162461bcd60e51b81526004018080602001828103825260318152602001806145766031913960400191505060405180910390fd5b505050505050565b60005b6001835103811015613804576000808483815181106135e257fe5b60200260200101518584600101815181106135f957fe5b60200260200101519150915060006136118383613ffb565b509050600087856001018151811061362557fe5b60200260200101519050600080836001600160a01b0316866001600160a01b03161461365357826000613657565b6000835b91509150600060028a5103881061366e57886136af565b6136af7f0000000000000000000000000000000000000000000000000000000000000000878c8b600201815181106136a257fe5b60200260200101516133a7565b90506136dc7f000000000000000000000000000000000000000000000000000000000000000088886133a7565b6001600160a01b031663022c0d9f84848460006040519080825280601f01601f191660200182016040528015613719576020820181803683370190505b506040518563ffffffff1660e01b815260040180858152602001848152602001836001600160a01b03166001600160a01b0316815260200180602001828103825283818151815260200191508051906020019080838360005b8381101561378a578181015183820152602001613772565b50505050905090810190601f1680156137b75780820380516001836020036101000a031916815260200191505b5095505050505050600060405180830381600087803b1580156137d957600080fd5b505af11580156137ed573d6000803e3d6000fd5b5050600190990198506135c7975050505050505050565b50505050565b6060600282511015613863576040805162461bcd60e51b815260206004820152601c60248201527f446f6765736f6e4c6962726172793a20494e56414c49445f5041544800000000604482015290519081900360640190fd5b815167ffffffffffffffff8111801561387b57600080fd5b506040519080825280602002602001820160405280156138a5578160200160208202803683370190505b50905082816001835103815181106138b957fe5b60209081029190910101528151600019015b801561339f576000806138fb878660018603815181106138e757fe5b602002602001015187868151811061331857fe5b9150915061394484848151811061390e57fe5b6020026020010151838361393f8b8a60018a038151811061392b57fe5b60200260200101518b8a8151811061336957fe5b613a6a565b84600185038151811061395357fe5b60209081029190910101525050600019016138cb565b60008085116139a95760405162461bcd60e51b81526004018080602001828103825260298152602001806146046029913960400191505060405180910390fd5b6000841180156139b95750600083115b6139f45760405162461bcd60e51b81526004018080602001828103825260268152602001806146936026913960400191505060405180910390fd5b6000613a18613a0b6103e88563ffffffff613eff16565b879063ffffffff61449f16565b90506000613a2c828663ffffffff61449f16565b90506000613a5283613a46896103e863ffffffff61449f16565b9063ffffffff61450216565b9050808281613a5d57fe5b0498975050505050505050565b6000808511613aaa5760405162461bcd60e51b815260040180806020018281038252602a81526020018061474f602a913960400191505060405180910390fd5b600084118015613aba5750600083115b613af55760405162461bcd60e51b81526004018080602001828103825260268152602001806146936026913960400191505060405180910390fd5b6000613b196103e8613b0d878963ffffffff61449f16565b9063ffffffff61449f16565b90506000613b42613b326103e88663ffffffff613eff16565b613b0d878a63ffffffff613eff16565b9050613b5f6001828481613b5257fe5b049063ffffffff61450216565b979650505050505050565b60007f00000000000000000000000000000000000000000000000000000000000000006001600160a01b031663574f2ba36040518163ffffffff1660e01b815260040160206040518083038186803b158015613bc557600080fd5b505afa158015613bd9573d6000803e3d6000fd5b505050506040513d6020811015613bef57600080fd5b5051905060005b600184510381101561380457600080858381518110613c1157fe5b6020026020010151868460010181518110613c2857fe5b6020026020010151915091506000613c408383613ffb565b5090506000613c707f000000000000000000000000000000000000000000000000000000000000000085856133a7565b9050600080600080846001600160a01b0316630902f1ac6040518163ffffffff1660e01b815260040160606040518083038186803b158015613cb157600080fd5b505afa158015613cc5573d6000803e3d6000fd5b505050506040513d6060811015613cdb57600080fd5b5080516020909101516001600160701b0391821693501690506000806001600160a01b038a811690891614613d11578284613d14565b83835b91509150613d72828b6001600160a01b03166370a082318a6040518263ffffffff1660e01b815260040180826001600160a01b03166001600160a01b0316815260200191505060206040518083038186803b15801561183a57600080fd5b9550613d808c878484613969565b945050505050600080856001600160a01b0316886001600160a01b031614613daa57826000613dae565b6000835b91509150600060028d51038a10613dc5578b613df9565b613df97f0000000000000000000000000000000000000000000000000000000000000000898f8d600201815181106136a257fe5b604080516000808252602082019283905263022c0d9f60e01b835260248201878152604483018790526001600160a01b038086166064850152608060848501908152845160a48601819052969750908c169563022c0d9f958a958a958a9591949193919260c486019290918190849084905b83811015613e83578181015183820152602001613e6b565b50505050905090810190601f168015613eb05780820380516001836020036101000a031916815260200191505b5095505050505050600060405180830381600087803b158015613ed257600080fd5b505af1158015613ee6573d6000803e3d6000fd5b50506001909b019a50613bf69950505050505050505050565b8082038281111561111a576040805162461bcd60e51b815260206004820152601560248201527464732d6d6174682d7375622d756e646572666c6f7760581b604482015290519081900360640190fd5b6000808411613f8f5760405162461bcd60e51b81526004018080602001828103825260238152602001806146706023913960400191505060405180910390fd5b600083118015613f9f5750600082115b613fda5760405162461bcd60e51b81526004018080602001828103825260268152602001806146936026913960400191505060405180910390fd5b82613feb858463ffffffff61449f16565b81613ff257fe5b04949350505050565b600080826001600160a01b0316846001600160a01b0316141561404f5760405162461bcd60e51b815260040180806020018281038252602381526020018061464d6023913960400191505060405180910390fd5b826001600160a01b0316846001600160a01b03161061406f578284614072565b83835b90925090506001600160a01b0382166140d2576040805162461bcd60e51b815260206004820152601c60248201527f446f6765736f6e4c6962726172793a205a45524f5f4144445245535300000000604482015290519081900360640190fd5b9250929050565b6040805163e6a4390560e01b81526001600160a01b03888116600483015287811660248301529151600092839283927f00000000000000000000000000000000000000000000000000000000000000009092169163e6a4390591604480820192602092909190829003018186803b15801561415357600080fd5b505afa158015614167573d6000803e3d6000fd5b505050506040513d602081101561417d57600080fd5b50516001600160a01b0316141561423057604080516364e329cb60e11b81526001600160a01b038a81166004830152898116602483015291517f00000000000000000000000000000000000000000000000000000000000000009092169163c9c65396916044808201926020929091908290030181600087803b15801561420357600080fd5b505af1158015614217573d6000803e3d6000fd5b505050506040513d602081101561422d57600080fd5b50505b60008061425e7f00000000000000000000000000000000000000000000000000000000000000008b8b61434d565b91509150816000148015614270575080155b1561428057879350869250614340565b600061428d898484613f4f565b90508781116142e057858110156142d55760405162461bcd60e51b81526004018080602001828103825260248152602001806146b96024913960400191505060405180910390fd5b88945092508261433e565b60006142ed898486613f4f565b9050898111156142f957fe5b878110156143385760405162461bcd60e51b81526004018080602001828103825260248152602001806145526024913960400191505060405180910390fd5b94508793505b505b5050965096945050505050565b600080600061435c8585613ffb565b50905061436a8686866133a7565b506000806143798888886133a7565b6001600160a01b0316630902f1ac6040518163ffffffff1660e01b815260040160606040518083038186803b1580156143b157600080fd5b505afa1580156143c5573d6000803e3d6000fd5b505050506040513d60608110156143db57600080fd5b5080516020909101516001600160701b0391821693501690506001600160a01b038781169084161461440e578082614411565b81815b90999098509650505050505050565b600061442d8484846133a7565b6001600160a01b03166354cf2aeb6040518163ffffffff1660e01b815260040160206040518083038186803b15801561446557600080fd5b505afa158015614479573d6000803e3d6000fd5b505050506040513d602081101561448f57600080fd5b505163ffffffff16949350505050565b60008115806144ba575050808202828282816144b757fe5b04145b61111a576040805162461bcd60e51b815260206004820152601460248201527364732d6d6174682d6d756c2d6f766572666c6f7760601b604482015290519081900360640190fd5b8082018281101561111a576040805162461bcd60e51b815260206004820152601460248201527364732d6d6174682d6164642d6f766572666c6f7760601b604482015290519081900360640190fdfe446f6765736f6e526f757465723a20494e53554646494349454e545f415f414d4f554e545472616e7366657248656c7065723a3a7472616e7366657246726f6d3a207472616e7366657246726f6d206661696c6564446f6765736f6e526f757465723a20494e53554646494349454e545f4f55545055545f414d4f554e545472616e7366657248656c7065723a3a736166655472616e736665724554483a20455448207472616e73666572206661696c6564446f6765736f6e4c6962726172793a20494e53554646494349454e545f494e5055545f414d4f554e54446f6765736f6e526f757465723a204558504952454400000000000000000000446f6765736f6e4c6962726172793a204944454e544943414c5f414444524553534553446f6765736f6e4c6962726172793a20494e53554646494349454e545f414d4f554e54446f6765736f6e4c6962726172793a20494e53554646494349454e545f4c4951554944495459446f6765736f6e526f757465723a20494e53554646494349454e545f425f414d4f554e54446f6765736f6e526f757465723a204558434553534956455f494e5055545f414d4f554e545472616e7366657248656c7065723a3a736166655472616e736665723a207472616e73666572206661696c6564446f6765736f6e526f757465723a20494e56414c49445f504154480000000000446f6765736f6e4c6962726172793a20494e53554646494349454e545f4f55545055545f414d4f554e54a264697066735822122026d06fc3dd71fdc5a6c976554a329ca8fe2bfee150810d805c0e15028529cc4664736f6c63430006060033",
  "immutableReferences": {
    "186": [
      {
        "length": 32,
        "start": 3739
      },
      {
        "length": 32,
        "start": 3954
      },
      {
        "length": 32,
        "start": 4337
      },
      {
        "length": 32,
        "start": 4394
      },
      {
        "length": 32,
        "start": 4709
      },
      {
        "length": 32,
        "start": 5187
      },
      {
        "length": 32,
        "start": 5406
      },
      {
        "length": 32,
        "start": 5774
      },
      {
        "length": 32,
        "start": 7192
      },
      {
        "length": 32,
        "start": 7557
      },
      {
        "length": 32,
        "start": 7899
      },
      {
        "length": 32,
        "start": 8900
      },
      {
        "length": 32,
        "start": 9501
      },
      {
        "length": 32,
        "start": 10005
      },
      {
        "length": 32,
        "start": 10046
      },
      {
        "length": 32,
        "start": 10094
      },
      {
        "length": 32,
        "start": 10459
      },
      {
        "length": 32,
        "start": 10807
      },
      {
        "length": 32,
        "start": 11572
      },
      {
        "length": 32,
        "start": 11934
      },
      {
        "length": 32,
        "start": 13939
      },
      {
        "length": 32,
        "start": 14006
      },
      {
        "length": 32,
        "start": 15214
      },
      {
        "length": 32,
        "start": 15434
      },
      {
        "length": 32,
        "start": 15818
      },
      {
        "length": 32,
        "start": 16650
      },
      {
        "length": 32,
        "start": 16824
      },
      {
        "length": 32,
        "start": 16952
      }
    ],
    "189": [
      {
        "length": 32,
        "start": 351
      },
      {
        "length": 32,
        "start": 3312
      },
      {
        "length": 32,
        "start": 3371
      },
      {
        "length": 32,
        "start": 3597
      },
      {
        "length": 32,
        "start": 4139
      },
      {
        "length": 32,
        "start": 5045
      },
      {
        "length": 32,
        "start": 5440
      },
      {
        "length": 32,
        "start": 6407
      },
      {
        "length": 32,
        "start": 6657
      },
      {
        "length": 32,
        "start": 6839
      },
      {
        "length": 32,
        "start": 7045
      },
      {
        "length": 32,
        "start": 7371
      },
      {
        "length": 32,
        "start": 7507
      },
      {
        "length": 32,
        "start": 8075
      },
      {
        "length": 32,
        "start": 8206
      },
      {
        "length": 32,
        "start": 8381
      },
      {
        "length": 32,
        "start": 8585
      },
      {
        "length": 32,
        "start": 8734
      },
      {
        "length": 32,
        "start": 8850
      },
      {
        "length": 32,
        "start": 10128
      },
      {
        "length": 32,
        "start": 10755
      },
      {
        "length": 32,
        "start": 10841
      },
      {
        "length": 32,
        "start": 10893
      },
      {
        "length": 32,
        "start": 11009
      },
      {
        "length": 32,
        "start": 11425
      },
      {
        "length": 32,
        "start": 11748
      },
      {
        "length": 32,
        "start": 11884
      }
    ]
  },
  "source": "pragma solidity =0.6.6;\n\nimport './interfaces/IDogesonFactory.sol';\nimport './libraries/TransferHelper.sol';\n\nimport './interfaces/IDogesonRouter02.sol';\nimport './libraries/DogesonLibrary.sol';\nimport './libraries/SafeMath.sol';\nimport './interfaces/IERC20.sol';\nimport './interfaces/IWETH.sol';\n\ncontract DogesonRouter is IDogesonRouter02 {\n    using SafeMath for uint;\n\n    address public immutable override factory;\n    address public immutable override WETH;\n\n    modifier ensure(uint deadline) {\n        require(deadline >= block.timestamp, 'DogesonRouter: EXPIRED');\n        _;\n    }\n\n    constructor(address _factory, address _WETH) public {\n        factory = _factory;\n        WETH = _WETH;\n    }\n\n    receive() external payable {\n        assert(msg.sender == WETH); // only accept ETH via fallback from the WETH contract\n    }\n\n    // **** ADD LIQUIDITY ****\n    function _addLiquidity(\n        address tokenA,\n        address tokenB,\n        uint amountADesired,\n        uint amountBDesired,\n        uint amountAMin,\n        uint amountBMin\n    ) internal virtual returns (uint amountA, uint amountB) {\n        // create the pair if it doesn't exist yet\n        if (IDogesonFactory(factory).getPair(tokenA, tokenB) == address(0)) {\n            IDogesonFactory(factory).createPair(tokenA, tokenB);\n        }\n        (uint reserveA, uint reserveB) = DogesonLibrary.getReserves(factory, tokenA, tokenB);\n        if (reserveA == 0 && reserveB == 0) {\n            (amountA, amountB) = (amountADesired, amountBDesired);\n        } else {\n            uint amountBOptimal = DogesonLibrary.quote(amountADesired, reserveA, reserveB);\n            if (amountBOptimal <= amountBDesired) {\n                require(amountBOptimal >= amountBMin, 'DogesonRouter: INSUFFICIENT_B_AMOUNT');\n                (amountA, amountB) = (amountADesired, amountBOptimal);\n            } else {\n                uint amountAOptimal = DogesonLibrary.quote(amountBDesired, reserveB, reserveA);\n                assert(amountAOptimal <= amountADesired);\n                require(amountAOptimal >= amountAMin, 'DogesonRouter: INSUFFICIENT_A_AMOUNT');\n                (amountA, amountB) = (amountAOptimal, amountBDesired);\n            }\n        }\n    }\n    function addLiquidity(\n        address tokenA,\n        address tokenB,\n        uint amountADesired,\n        uint amountBDesired,\n        uint amountAMin,\n        uint amountBMin,\n        address to,\n        uint deadline\n    ) external virtual override ensure(deadline) returns (uint amountA, uint amountB, uint liquidity) {\n        (amountA, amountB) = _addLiquidity(tokenA, tokenB, amountADesired, amountBDesired, amountAMin, amountBMin);\n        address pair = DogesonLibrary.pairFor(factory, tokenA, tokenB);\n        TransferHelper.safeTransferFrom(tokenA, msg.sender, pair, amountA);\n        TransferHelper.safeTransferFrom(tokenB, msg.sender, pair, amountB);\n        liquidity = IDogesonPair(pair).mint(to);\n    }\n    function addLiquidityETH(\n        address token,\n        uint amountTokenDesired,\n        uint amountTokenMin,\n        uint amountETHMin,\n        address to,\n        uint deadline\n    ) external virtual override payable ensure(deadline) returns (uint amountToken, uint amountETH, uint liquidity) {\n        (amountToken, amountETH) = _addLiquidity(\n            token,\n            WETH,\n            amountTokenDesired,\n            msg.value,\n            amountTokenMin,\n            amountETHMin\n        );\n        address pair = DogesonLibrary.pairFor(factory, token, WETH);\n        TransferHelper.safeTransferFrom(token, msg.sender, pair, amountToken);\n        IWETH(WETH).deposit{value: amountETH}();\n        assert(IWETH(WETH).transfer(pair, amountETH));\n        liquidity = IDogesonPair(pair).mint(to);\n        // refund dust eth, if any\n        if (msg.value > amountETH) TransferHelper.safeTransferETH(msg.sender, msg.value - amountETH);\n    }\n\n    // **** REMOVE LIQUIDITY ****\n    function removeLiquidity(\n        address tokenA,\n        address tokenB,\n        uint liquidity,\n        uint amountAMin,\n        uint amountBMin,\n        address to,\n        uint deadline\n    ) public virtual override ensure(deadline) returns (uint amountA, uint amountB) {\n        address pair = DogesonLibrary.pairFor(factory, tokenA, tokenB);\n        IDogesonPair(pair).transferFrom(msg.sender, pair, liquidity); // send liquidity to pair\n        (uint amount0, uint amount1) = IDogesonPair(pair).burn(to);\n        (address token0,) = DogesonLibrary.sortTokens(tokenA, tokenB);\n        (amountA, amountB) = tokenA == token0 ? (amount0, amount1) : (amount1, amount0);\n        require(amountA >= amountAMin, 'DogesonRouter: INSUFFICIENT_A_AMOUNT');\n        require(amountB >= amountBMin, 'DogesonRouter: INSUFFICIENT_B_AMOUNT');\n    }\n    function removeLiquidityETH(\n        address token,\n        uint liquidity,\n        uint amountTokenMin,\n        uint amountETHMin,\n        address to,\n        uint deadline\n    ) public virtual override ensure(deadline) returns (uint amountToken, uint amountETH) {\n        (amountToken, amountETH) = removeLiquidity(\n            token,\n            WETH,\n            liquidity,\n            amountTokenMin,\n            amountETHMin,\n            address(this),\n            deadline\n        );\n        TransferHelper.safeTransfer(token, to, amountToken);\n        IWETH(WETH).withdraw(amountETH);\n        TransferHelper.safeTransferETH(to, amountETH);\n    }\n    function removeLiquidityWithPermit(\n        address tokenA,\n        address tokenB,\n        uint liquidity,\n        uint amountAMin,\n        uint amountBMin,\n        address to,\n        uint deadline,\n        bool approveMax, uint8 v, bytes32 r, bytes32 s\n    ) external virtual override returns (uint amountA, uint amountB) {\n        address pair = DogesonLibrary.pairFor(factory, tokenA, tokenB);\n        uint value = approveMax ? uint(-1) : liquidity;\n        IDogesonPair(pair).permit(msg.sender, address(this), value, deadline, v, r, s);\n        (amountA, amountB) = removeLiquidity(tokenA, tokenB, liquidity, amountAMin, amountBMin, to, deadline);\n    }\n    function removeLiquidityETHWithPermit(\n        address token,\n        uint liquidity,\n        uint amountTokenMin,\n        uint amountETHMin,\n        address to,\n        uint deadline,\n        bool approveMax, uint8 v, bytes32 r, bytes32 s\n    ) external virtual override returns (uint amountToken, uint amountETH) {\n        address pair = DogesonLibrary.pairFor(factory, token, WETH);\n        uint value = approveMax ? uint(-1) : liquidity;\n        IDogesonPair(pair).permit(msg.sender, address(this), value, deadline, v, r, s);\n        (amountToken, amountETH) = removeLiquidityETH(token, liquidity, amountTokenMin, amountETHMin, to, deadline);\n    }\n\n    // **** REMOVE LIQUIDITY (supporting fee-on-transfer tokens) ****\n    function removeLiquidityETHSupportingFeeOnTransferTokens(\n        address token,\n        uint liquidity,\n        uint amountTokenMin,\n        uint amountETHMin,\n        address to,\n        uint deadline\n    ) public virtual override ensure(deadline) returns (uint amountETH) {\n        (, amountETH) = removeLiquidity(\n            token,\n            WETH,\n            liquidity,\n            amountTokenMin,\n            amountETHMin,\n            address(this),\n            deadline\n        );\n        TransferHelper.safeTransfer(token, to, IERC20(token).balanceOf(address(this)));\n        IWETH(WETH).withdraw(amountETH);\n        TransferHelper.safeTransferETH(to, amountETH);\n    }\n    function removeLiquidityETHWithPermitSupportingFeeOnTransferTokens(\n        address token,\n        uint liquidity,\n        uint amountTokenMin,\n        uint amountETHMin,\n        address to,\n        uint deadline,\n        bool approveMax, uint8 v, bytes32 r, bytes32 s\n    ) external virtual override returns (uint amountETH) {\n        address pair = DogesonLibrary.pairFor(factory, token, WETH);\n        uint value = approveMax ? uint(-1) : liquidity;\n        IDogesonPair(pair).permit(msg.sender, address(this), value, deadline, v, r, s);\n        amountETH = removeLiquidityETHSupportingFeeOnTransferTokens(\n            token, liquidity, amountTokenMin, amountETHMin, to, deadline\n        );\n    }\n\n    // **** SWAP ****\n    // requires the initial amount to have already been sent to the first pair\n    function _swap(uint[] memory amounts, address[] memory path, address _to) internal virtual {\n        for (uint i; i < path.length - 1; i++) {\n            (address input, address output) = (path[i], path[i + 1]);\n            (address token0,) = DogesonLibrary.sortTokens(input, output);\n            uint amountOut = amounts[i + 1];\n            (uint amount0Out, uint amount1Out) = input == token0 ? (uint(0), amountOut) : (amountOut, uint(0));\n            address to = i < path.length - 2 ? DogesonLibrary.pairFor(factory, output, path[i + 2]) : _to;\n            IDogesonPair(DogesonLibrary.pairFor(factory, input, output)).swap(\n                amount0Out, amount1Out, to, new bytes(0)\n            );\n        }\n    }\n    function swapExactTokensForTokens(\n        uint amountIn,\n        uint amountOutMin,\n        address[] calldata path,\n        address to,\n        uint deadline\n    ) external virtual override ensure(deadline) returns (uint[] memory amounts) {\n        amounts = DogesonLibrary.getAmountsOut(factory, amountIn, path);\n        require(amounts[amounts.length - 1] >= amountOutMin, 'DogesonRouter: INSUFFICIENT_OUTPUT_AMOUNT');\n        TransferHelper.safeTransferFrom(\n            path[0], msg.sender, DogesonLibrary.pairFor(factory, path[0], path[1]), amounts[0]\n        );\n        _swap(amounts, path, to);\n    }\n    function swapTokensForExactTokens(\n        uint amountOut,\n        uint amountInMax,\n        address[] calldata path,\n        address to,\n        uint deadline\n    ) external virtual override ensure(deadline) returns (uint[] memory amounts) {\n        amounts = DogesonLibrary.getAmountsIn(factory, amountOut, path);\n        require(amounts[0] <= amountInMax, 'DogesonRouter: EXCESSIVE_INPUT_AMOUNT');\n        TransferHelper.safeTransferFrom(\n            path[0], msg.sender, DogesonLibrary.pairFor(factory, path[0], path[1]), amounts[0]\n        );\n        _swap(amounts, path, to);\n    }\n    function swapExactETHForTokens(uint amountOutMin, address[] calldata path, address to, uint deadline)\n        external\n        virtual\n        override\n        payable\n        ensure(deadline)\n        returns (uint[] memory amounts)\n    {\n        require(path[0] == WETH, 'DogesonRouter: INVALID_PATH');\n        amounts = DogesonLibrary.getAmountsOut(factory, msg.value, path);\n        require(amounts[amounts.length - 1] >= amountOutMin, 'DogesonRouter: INSUFFICIENT_OUTPUT_AMOUNT');\n        IWETH(WETH).deposit{value: amounts[0]}();\n        assert(IWETH(WETH).transfer(DogesonLibrary.pairFor(factory, path[0], path[1]), amounts[0]));\n        _swap(amounts, path, to);\n    }\n    function swapTokensForExactETH(uint amountOut, uint amountInMax, address[] calldata path, address to, uint deadline)\n        external\n        virtual\n        override\n        ensure(deadline)\n        returns (uint[] memory amounts)\n    {\n        require(path[path.length - 1] == WETH, 'DogesonRouter: INVALID_PATH');\n        amounts = DogesonLibrary.getAmountsIn(factory, amountOut, path);\n        require(amounts[0] <= amountInMax, 'DogesonRouter: EXCESSIVE_INPUT_AMOUNT');\n        TransferHelper.safeTransferFrom(\n            path[0], msg.sender, DogesonLibrary.pairFor(factory, path[0], path[1]), amounts[0]\n        );\n        _swap(amounts, path, address(this));\n        IWETH(WETH).withdraw(amounts[amounts.length - 1]);\n        TransferHelper.safeTransferETH(to, amounts[amounts.length - 1]);\n    }\n    function swapExactTokensForETH(uint amountIn, uint amountOutMin, address[] calldata path, address to, uint deadline)\n        external\n        virtual\n        override\n        ensure(deadline)\n        returns (uint[] memory amounts)\n    {\n        require(path[path.length - 1] == WETH, 'DogesonRouter: INVALID_PATH');\n        amounts = DogesonLibrary.getAmountsOut(factory, amountIn, path);\n        require(amounts[amounts.length - 1] >= amountOutMin, 'DogesonRouter: INSUFFICIENT_OUTPUT_AMOUNT');\n        TransferHelper.safeTransferFrom(\n            path[0], msg.sender, DogesonLibrary.pairFor(factory, path[0], path[1]), amounts[0]\n        );\n        _swap(amounts, path, address(this));\n        IWETH(WETH).withdraw(amounts[amounts.length - 1]);\n        TransferHelper.safeTransferETH(to, amounts[amounts.length - 1]);\n    }\n    function swapETHForExactTokens(uint amountOut, address[] calldata path, address to, uint deadline)\n        external\n        virtual\n        override\n        payable\n        ensure(deadline)\n        returns (uint[] memory amounts)\n    {\n        require(path[0] == WETH, 'DogesonRouter: INVALID_PATH');\n        amounts = DogesonLibrary.getAmountsIn(factory, amountOut, path);\n        require(amounts[0] <= msg.value, 'DogesonRouter: EXCESSIVE_INPUT_AMOUNT');\n        IWETH(WETH).deposit{value: amounts[0]}();\n        assert(IWETH(WETH).transfer(DogesonLibrary.pairFor(factory, path[0], path[1]), amounts[0]));\n        _swap(amounts, path, to);\n        // refund dust eth, if any\n        if (msg.value > amounts[0]) TransferHelper.safeTransferETH(msg.sender, msg.value - amounts[0]);\n    }\n\n    // **** SWAP (supporting fee-on-transfer tokens) ****\n    // requires the initial amount to have already been sent to the first pair\n    function _swapSupportingFeeOnTransferTokens(address[] memory path, address _to) internal virtual {\n        uint swapFee = IDogesonFactory(factory).allPairsLength();\n        for (uint i; i < path.length - 1; i++) {\n            (address input, address output) = (path[i], path[i + 1]);\n            (address token0,) = DogesonLibrary.sortTokens(input, output);\n            IDogesonPair pair = IDogesonPair(DogesonLibrary.pairFor(factory, input, output));\n            uint amountInput;\n            uint amountOutput;\n            { // scope to avoid stack too deep errors\n            (uint reserve0, uint reserve1,) = pair.getReserves();\n            (uint reserveInput, uint reserveOutput) = input == token0 ? (reserve0, reserve1) : (reserve1, reserve0);\n            amountInput = IERC20(input).balanceOf(address(pair)).sub(reserveInput);\n            amountOutput = DogesonLibrary.getAmountOut(swapFee, amountInput, reserveInput, reserveOutput);\n            }\n            (uint amount0Out, uint amount1Out) = input == token0 ? (uint(0), amountOutput) : (amountOutput, uint(0));\n            address to = i < path.length - 2 ? DogesonLibrary.pairFor(factory, output, path[i + 2]) : _to;\n            pair.swap(amount0Out, amount1Out, to, new bytes(0));\n        }\n    }\n    function swapExactTokensForTokensSupportingFeeOnTransferTokens(\n        uint amountIn,\n        uint amountOutMin,\n        address[] calldata path,\n        address to,\n        uint deadline\n    ) external virtual override ensure(deadline) {\n        TransferHelper.safeTransferFrom(\n            path[0], msg.sender, DogesonLibrary.pairFor(factory, path[0], path[1]), amountIn\n        );\n        uint balanceBefore = IERC20(path[path.length - 1]).balanceOf(to);\n        _swapSupportingFeeOnTransferTokens(path, to);\n        require(\n            IERC20(path[path.length - 1]).balanceOf(to).sub(balanceBefore) >= amountOutMin,\n            'DogesonRouter: INSUFFICIENT_OUTPUT_AMOUNT'\n        );\n    }\n    function swapExactETHForTokensSupportingFeeOnTransferTokens(\n        uint amountOutMin,\n        address[] calldata path,\n        address to,\n        uint deadline\n    )\n        external\n        virtual\n        override\n        payable\n        ensure(deadline)\n    {\n        require(path[0] == WETH, 'DogesonRouter: INVALID_PATH');\n        uint amountIn = msg.value;\n        IWETH(WETH).deposit{value: amountIn}();\n        assert(IWETH(WETH).transfer(DogesonLibrary.pairFor(factory, path[0], path[1]), amountIn));\n        uint balanceBefore = IERC20(path[path.length - 1]).balanceOf(to);\n        _swapSupportingFeeOnTransferTokens(path, to);\n        require(\n            IERC20(path[path.length - 1]).balanceOf(to).sub(balanceBefore) >= amountOutMin,\n            'DogesonRouter: INSUFFICIENT_OUTPUT_AMOUNT'\n        );\n    }\n    function swapExactTokensForETHSupportingFeeOnTransferTokens(\n        uint amountIn,\n        uint amountOutMin,\n        address[] calldata path,\n        address to,\n        uint deadline\n    )\n        external\n        virtual\n        override\n        ensure(deadline)\n    {\n        require(path[path.length - 1] == WETH, 'DogesonRouter: INVALID_PATH');\n        TransferHelper.safeTransferFrom(\n            path[0], msg.sender, DogesonLibrary.pairFor(factory, path[0], path[1]), amountIn\n        );\n        _swapSupportingFeeOnTransferTokens(path, address(this));\n        uint amountOut = IERC20(WETH).balanceOf(address(this));\n        require(amountOut >= amountOutMin, 'DogesonRouter: INSUFFICIENT_OUTPUT_AMOUNT');\n        IWETH(WETH).withdraw(amountOut);\n        TransferHelper.safeTransferETH(to, amountOut);\n    }\n\n    // **** LIBRARY FUNCTIONS ****\n    function quote(uint amountA, uint reserveA, uint reserveB) public pure virtual override returns (uint amountB) {\n        return DogesonLibrary.quote(amountA, reserveA, reserveB);\n    }\n\n    function getAmountOut(uint amountIn, uint reserveIn, uint reserveOut, uint swapFee)\n        public\n        pure\n        virtual\n        override\n        returns (uint amountOut)\n    {\n        return DogesonLibrary.getAmountOut(amountIn, reserveIn, reserveOut, swapFee);\n    }\n\n    function getAmountIn(uint amountOut, uint reserveIn, uint reserveOut, uint swapFee)\n        public\n        pure\n        virtual\n        override\n        returns (uint amountIn)\n    {\n        return DogesonLibrary.getAmountIn(amountOut, reserveIn, reserveOut, swapFee);\n    }\n\n    function getAmountsOut(uint amountIn, address[] memory path)\n        public\n        view\n        virtual\n        override\n        returns (uint[] memory amounts)\n    {\n        return DogesonLibrary.getAmountsOut(factory, amountIn, path);\n    }\n\n    function getAmountsIn(uint amountOut, address[] memory path)\n        public\n        view\n        virtual\n        override\n        returns (uint[] memory amounts)\n    {\n        return DogesonLibrary.getAmountsIn(factory, amountOut, path);\n    }\n}\n",
  "sourcePath": "R:/WorkRU/2021_Blockchain/Projects/20210712_Dogeson/02_src/pancake-swap/dogeson-swap-router-v1/contracts/DogesonRouter.sol",
  "compiler": {
    "name": "solc",
    "version": "0.6.6+commit.6c089d02.Emscripten.clang"
  },
  "schemaVersion": "3.4.1",
  "updatedAt": "2021-07-22T06:46:38.125Z",
  "devdoc": {
    "methods": {}
  },
  "userdoc": {
    "methods": {}
  }
}