{
  "contractName": "DogesonRouter01",
  "abi": [
    {
      "inputs": [
        {
          "internalType": "address",
          "name": "_factory",
          "type": "address"
        },
        {
          "internalType": "address",
          "name": "_WETH",
          "type": "address"
        }
      ],
      "stateMutability": "nonpayable",
      "type": "constructor"
    },
    {
      "inputs": [],
      "name": "WETH",
      "outputs": [
        {
          "internalType": "address",
          "name": "",
          "type": "address"
        }
      ],
      "stateMutability": "view",
      "type": "function"
    },
    {
      "inputs": [],
      "name": "factory",
      "outputs": [
        {
          "internalType": "address",
          "name": "",
          "type": "address"
        }
      ],
      "stateMutability": "view",
      "type": "function"
    },
    {
      "stateMutability": "payable",
      "type": "receive"
    },
    {
      "inputs": [
        {
          "internalType": "address",
          "name": "tokenA",
          "type": "address"
        },
        {
          "internalType": "address",
          "name": "tokenB",
          "type": "address"
        },
        {
          "internalType": "uint256",
          "name": "amountADesired",
          "type": "uint256"
        },
        {
          "internalType": "uint256",
          "name": "amountBDesired",
          "type": "uint256"
        },
        {
          "internalType": "uint256",
          "name": "amountAMin",
          "type": "uint256"
        },
        {
          "internalType": "uint256",
          "name": "amountBMin",
          "type": "uint256"
        },
        {
          "internalType": "address",
          "name": "to",
          "type": "address"
        },
        {
          "internalType": "uint256",
          "name": "deadline",
          "type": "uint256"
        }
      ],
      "name": "addLiquidity",
      "outputs": [
        {
          "internalType": "uint256",
          "name": "amountA",
          "type": "uint256"
        },
        {
          "internalType": "uint256",
          "name": "amountB",
          "type": "uint256"
        },
        {
          "internalType": "uint256",
          "name": "liquidity",
          "type": "uint256"
        }
      ],
      "stateMutability": "nonpayable",
      "type": "function"
    },
    {
      "inputs": [
        {
          "internalType": "address",
          "name": "token",
          "type": "address"
        },
        {
          "internalType": "uint256",
          "name": "amountTokenDesired",
          "type": "uint256"
        },
        {
          "internalType": "uint256",
          "name": "amountTokenMin",
          "type": "uint256"
        },
        {
          "internalType": "uint256",
          "name": "amountETHMin",
          "type": "uint256"
        },
        {
          "internalType": "address",
          "name": "to",
          "type": "address"
        },
        {
          "internalType": "uint256",
          "name": "deadline",
          "type": "uint256"
        }
      ],
      "name": "addLiquidityETH",
      "outputs": [
        {
          "internalType": "uint256",
          "name": "amountToken",
          "type": "uint256"
        },
        {
          "internalType": "uint256",
          "name": "amountETH",
          "type": "uint256"
        },
        {
          "internalType": "uint256",
          "name": "liquidity",
          "type": "uint256"
        }
      ],
      "stateMutability": "payable",
      "type": "function"
    },
    {
      "inputs": [
        {
          "internalType": "address",
          "name": "tokenA",
          "type": "address"
        },
        {
          "internalType": "address",
          "name": "tokenB",
          "type": "address"
        },
        {
          "internalType": "uint256",
          "name": "liquidity",
          "type": "uint256"
        },
        {
          "internalType": "uint256",
          "name": "amountAMin",
          "type": "uint256"
        },
        {
          "internalType": "uint256",
          "name": "amountBMin",
          "type": "uint256"
        },
        {
          "internalType": "address",
          "name": "to",
          "type": "address"
        },
        {
          "internalType": "uint256",
          "name": "deadline",
          "type": "uint256"
        }
      ],
      "name": "removeLiquidity",
      "outputs": [
        {
          "internalType": "uint256",
          "name": "amountA",
          "type": "uint256"
        },
        {
          "internalType": "uint256",
          "name": "amountB",
          "type": "uint256"
        }
      ],
      "stateMutability": "nonpayable",
      "type": "function"
    },
    {
      "inputs": [
        {
          "internalType": "address",
          "name": "token",
          "type": "address"
        },
        {
          "internalType": "uint256",
          "name": "liquidity",
          "type": "uint256"
        },
        {
          "internalType": "uint256",
          "name": "amountTokenMin",
          "type": "uint256"
        },
        {
          "internalType": "uint256",
          "name": "amountETHMin",
          "type": "uint256"
        },
        {
          "internalType": "address",
          "name": "to",
          "type": "address"
        },
        {
          "internalType": "uint256",
          "name": "deadline",
          "type": "uint256"
        }
      ],
      "name": "removeLiquidityETH",
      "outputs": [
        {
          "internalType": "uint256",
          "name": "amountToken",
          "type": "uint256"
        },
        {
          "internalType": "uint256",
          "name": "amountETH",
          "type": "uint256"
        }
      ],
      "stateMutability": "nonpayable",
      "type": "function"
    },
    {
      "inputs": [
        {
          "internalType": "address",
          "name": "tokenA",
          "type": "address"
        },
        {
          "internalType": "address",
          "name": "tokenB",
          "type": "address"
        },
        {
          "internalType": "uint256",
          "name": "liquidity",
          "type": "uint256"
        },
        {
          "internalType": "uint256",
          "name": "amountAMin",
          "type": "uint256"
        },
        {
          "internalType": "uint256",
          "name": "amountBMin",
          "type": "uint256"
        },
        {
          "internalType": "address",
          "name": "to",
          "type": "address"
        },
        {
          "internalType": "uint256",
          "name": "deadline",
          "type": "uint256"
        },
        {
          "internalType": "bool",
          "name": "approveMax",
          "type": "bool"
        },
        {
          "internalType": "uint8",
          "name": "v",
          "type": "uint8"
        },
        {
          "internalType": "bytes32",
          "name": "r",
          "type": "bytes32"
        },
        {
          "internalType": "bytes32",
          "name": "s",
          "type": "bytes32"
        }
      ],
      "name": "removeLiquidityWithPermit",
      "outputs": [
        {
          "internalType": "uint256",
          "name": "amountA",
          "type": "uint256"
        },
        {
          "internalType": "uint256",
          "name": "amountB",
          "type": "uint256"
        }
      ],
      "stateMutability": "nonpayable",
      "type": "function"
    },
    {
      "inputs": [
        {
          "internalType": "address",
          "name": "token",
          "type": "address"
        },
        {
          "internalType": "uint256",
          "name": "liquidity",
          "type": "uint256"
        },
        {
          "internalType": "uint256",
          "name": "amountTokenMin",
          "type": "uint256"
        },
        {
          "internalType": "uint256",
          "name": "amountETHMin",
          "type": "uint256"
        },
        {
          "internalType": "address",
          "name": "to",
          "type": "address"
        },
        {
          "internalType": "uint256",
          "name": "deadline",
          "type": "uint256"
        },
        {
          "internalType": "bool",
          "name": "approveMax",
          "type": "bool"
        },
        {
          "internalType": "uint8",
          "name": "v",
          "type": "uint8"
        },
        {
          "internalType": "bytes32",
          "name": "r",
          "type": "bytes32"
        },
        {
          "internalType": "bytes32",
          "name": "s",
          "type": "bytes32"
        }
      ],
      "name": "removeLiquidityETHWithPermit",
      "outputs": [
        {
          "internalType": "uint256",
          "name": "amountToken",
          "type": "uint256"
        },
        {
          "internalType": "uint256",
          "name": "amountETH",
          "type": "uint256"
        }
      ],
      "stateMutability": "nonpayable",
      "type": "function"
    },
    {
      "inputs": [
        {
          "internalType": "uint256",
          "name": "amountIn",
          "type": "uint256"
        },
        {
          "internalType": "uint256",
          "name": "amountOutMin",
          "type": "uint256"
        },
        {
          "internalType": "address[]",
          "name": "path",
          "type": "address[]"
        },
        {
          "internalType": "address",
          "name": "to",
          "type": "address"
        },
        {
          "internalType": "uint256",
          "name": "deadline",
          "type": "uint256"
        }
      ],
      "name": "swapExactTokensForTokens",
      "outputs": [
        {
          "internalType": "uint256[]",
          "name": "amounts",
          "type": "uint256[]"
        }
      ],
      "stateMutability": "nonpayable",
      "type": "function"
    },
    {
      "inputs": [
        {
          "internalType": "uint256",
          "name": "amountOut",
          "type": "uint256"
        },
        {
          "internalType": "uint256",
          "name": "amountInMax",
          "type": "uint256"
        },
        {
          "internalType": "address[]",
          "name": "path",
          "type": "address[]"
        },
        {
          "internalType": "address",
          "name": "to",
          "type": "address"
        },
        {
          "internalType": "uint256",
          "name": "deadline",
          "type": "uint256"
        }
      ],
      "name": "swapTokensForExactTokens",
      "outputs": [
        {
          "internalType": "uint256[]",
          "name": "amounts",
          "type": "uint256[]"
        }
      ],
      "stateMutability": "nonpayable",
      "type": "function"
    },
    {
      "inputs": [
        {
          "internalType": "uint256",
          "name": "amountOutMin",
          "type": "uint256"
        },
        {
          "internalType": "address[]",
          "name": "path",
          "type": "address[]"
        },
        {
          "internalType": "address",
          "name": "to",
          "type": "address"
        },
        {
          "internalType": "uint256",
          "name": "deadline",
          "type": "uint256"
        }
      ],
      "name": "swapExactETHForTokens",
      "outputs": [
        {
          "internalType": "uint256[]",
          "name": "amounts",
          "type": "uint256[]"
        }
      ],
      "stateMutability": "payable",
      "type": "function"
    },
    {
      "inputs": [
        {
          "internalType": "uint256",
          "name": "amountOut",
          "type": "uint256"
        },
        {
          "internalType": "uint256",
          "name": "amountInMax",
          "type": "uint256"
        },
        {
          "internalType": "address[]",
          "name": "path",
          "type": "address[]"
        },
        {
          "internalType": "address",
          "name": "to",
          "type": "address"
        },
        {
          "internalType": "uint256",
          "name": "deadline",
          "type": "uint256"
        }
      ],
      "name": "swapTokensForExactETH",
      "outputs": [
        {
          "internalType": "uint256[]",
          "name": "amounts",
          "type": "uint256[]"
        }
      ],
      "stateMutability": "nonpayable",
      "type": "function"
    },
    {
      "inputs": [
        {
          "internalType": "uint256",
          "name": "amountIn",
          "type": "uint256"
        },
        {
          "internalType": "uint256",
          "name": "amountOutMin",
          "type": "uint256"
        },
        {
          "internalType": "address[]",
          "name": "path",
          "type": "address[]"
        },
        {
          "internalType": "address",
          "name": "to",
          "type": "address"
        },
        {
          "internalType": "uint256",
          "name": "deadline",
          "type": "uint256"
        }
      ],
      "name": "swapExactTokensForETH",
      "outputs": [
        {
          "internalType": "uint256[]",
          "name": "amounts",
          "type": "uint256[]"
        }
      ],
      "stateMutability": "nonpayable",
      "type": "function"
    },
    {
      "inputs": [
        {
          "internalType": "uint256",
          "name": "amountOut",
          "type": "uint256"
        },
        {
          "internalType": "address[]",
          "name": "path",
          "type": "address[]"
        },
        {
          "internalType": "address",
          "name": "to",
          "type": "address"
        },
        {
          "internalType": "uint256",
          "name": "deadline",
          "type": "uint256"
        }
      ],
      "name": "swapETHForExactTokens",
      "outputs": [
        {
          "internalType": "uint256[]",
          "name": "amounts",
          "type": "uint256[]"
        }
      ],
      "stateMutability": "payable",
      "type": "function"
    },
    {
      "inputs": [
        {
          "internalType": "uint256",
          "name": "amountA",
          "type": "uint256"
        },
        {
          "internalType": "uint256",
          "name": "reserveA",
          "type": "uint256"
        },
        {
          "internalType": "uint256",
          "name": "reserveB",
          "type": "uint256"
        }
      ],
      "name": "quote",
      "outputs": [
        {
          "internalType": "uint256",
          "name": "amountB",
          "type": "uint256"
        }
      ],
      "stateMutability": "pure",
      "type": "function"
    },
    {
      "inputs": [
        {
          "internalType": "uint256",
          "name": "amountIn",
          "type": "uint256"
        },
        {
          "internalType": "uint256",
          "name": "reserveIn",
          "type": "uint256"
        },
        {
          "internalType": "uint256",
          "name": "reserveOut",
          "type": "uint256"
        },
        {
          "internalType": "uint256",
          "name": "swapFee",
          "type": "uint256"
        }
      ],
      "name": "getAmountOut",
      "outputs": [
        {
          "internalType": "uint256",
          "name": "amountOut",
          "type": "uint256"
        }
      ],
      "stateMutability": "pure",
      "type": "function"
    },
    {
      "inputs": [
        {
          "internalType": "uint256",
          "name": "amountOut",
          "type": "uint256"
        },
        {
          "internalType": "uint256",
          "name": "reserveIn",
          "type": "uint256"
        },
        {
          "internalType": "uint256",
          "name": "reserveOut",
          "type": "uint256"
        },
        {
          "internalType": "uint256",
          "name": "swapFee",
          "type": "uint256"
        }
      ],
      "name": "getAmountIn",
      "outputs": [
        {
          "internalType": "uint256",
          "name": "amountIn",
          "type": "uint256"
        }
      ],
      "stateMutability": "pure",
      "type": "function"
    },
    {
      "inputs": [
        {
          "internalType": "uint256",
          "name": "amountIn",
          "type": "uint256"
        },
        {
          "internalType": "address[]",
          "name": "path",
          "type": "address[]"
        }
      ],
      "name": "getAmountsOut",
      "outputs": [
        {
          "internalType": "uint256[]",
          "name": "amounts",
          "type": "uint256[]"
        }
      ],
      "stateMutability": "view",
      "type": "function"
    },
    {
      "inputs": [
        {
          "internalType": "uint256",
          "name": "amountOut",
          "type": "uint256"
        },
        {
          "internalType": "address[]",
          "name": "path",
          "type": "address[]"
        }
      ],
      "name": "getAmountsIn",
      "outputs": [
        {
          "internalType": "uint256[]",
          "name": "amounts",
          "type": "uint256[]"
        }
      ],
      "stateMutability": "view",
      "type": "function"
    }
  ],
  "bytecode": "0x60c060405234801561001057600080fd5b5060405161374e38038061374e8339818101604052604081101561003357600080fd5b5080516020909101516001600160601b0319606092831b8116608052911b1660a05260805160601c60a05160601c61361261013c600039806101285280610a075280610a425280610b245280610d4252806110cc528061126752806113ad5280611435528061168a52806119825280611bf55280611c4b5280611c7f5280611cf35280611e935280611fd6528061205e525080610bb25280610c895280610e085280610e415280610f7c528061115a52806112fa528061146752806115da528061170f5280611907528061193052806119605280611acd5280611c295280611f265280612090528061286552806128a85280612e175280612ec55280612f4552506136126000f3fe6080604052600436106101185760003560e01c80638803dbee116100a0578063d06ca61f11610064578063d06ca61f14610748578063ded9382a146107fd578063e8e3370014610870578063f305d719146108f0578063fb3bdb411461093657610151565b80638803dbee146105d9578063ad5c46481461066f578063ad615dec146106a0578063baa2abde146106d6578063c45a01551461073357610151565b806338ed1739116100e757806338ed1739146103db5780634a25d94a1461047157806352707d8c14610507578063571fd012146105075780637ff36ab51461055557610151565b806302751cec1461015657806318cbafe5146101c25780631f00ca74146102a85780632195995c1461035d57610151565b3661015157336001600160a01b037f0000000000000000000000000000000000000000000000000000000000000000161461014f57fe5b005b600080fd5b34801561016257600080fd5b506101a9600480360360c081101561017957600080fd5b506001600160a01b0381358116916020810135916040820135916060810135916080820135169060a001356109ba565b6040805192835260208301919091528051918290030190f35b3480156101ce57600080fd5b50610258600480360360a08110156101e557600080fd5b813591602081013591810190606081016040820135600160201b81111561020b57600080fd5b82018360208201111561021d57600080fd5b803590602001918460208302840111600160201b8311171561023e57600080fd5b91935091506001600160a01b038135169060200135610ad4565b60408051602080825283518183015283519192839290830191858101910280838360005b8381101561029457818101518382015260200161027c565b505050509050019250505060405180910390f35b3480156102b457600080fd5b50610258600480360360408110156102cb57600080fd5b81359190810190604081016020820135600160201b8111156102ec57600080fd5b8201836020820111156102fe57600080fd5b803590602001918460208302840111600160201b8311171561031f57600080fd5b919080806020026020016040519081016040528093929190818152602001838360200280828437600092019190915250929550610e01945050505050565b34801561036957600080fd5b506101a9600480360361016081101561038157600080fd5b506001600160a01b038135811691602081013582169160408201359160608101359160808201359160a08101359091169060c08101359060e081013515159060ff6101008201351690610120810135906101400135610e37565b3480156103e757600080fd5b50610258600480360360a08110156103fe57600080fd5b813591602081013591810190606081016040820135600160201b81111561042457600080fd5b82018360208201111561043657600080fd5b803590602001918460208302840111600160201b8311171561045757600080fd5b91935091506001600160a01b038135169060200135610f31565b34801561047d57600080fd5b50610258600480360360a081101561049457600080fd5b813591602081013591810190606081016040820135600160201b8111156104ba57600080fd5b8201836020820111156104cc57600080fd5b803590602001918460208302840111600160201b831117156104ed57600080fd5b91935091506001600160a01b03813516906020013561107c565b34801561051357600080fd5b506105436004803603608081101561052a57600080fd5b5080359060208101359060408101359060600135611208565b60408051918252519081900360200190f35b6102586004803603608081101561056b57600080fd5b81359190810190604081016020820135600160201b81111561058c57600080fd5b82018360208201111561059e57600080fd5b803590602001918460208302840111600160201b831117156105bf57600080fd5b91935091506001600160a01b03813516906020013561121f565b3480156105e557600080fd5b50610258600480360360a08110156105fc57600080fd5b813591602081013591810190606081016040820135600160201b81111561062257600080fd5b82018360208201111561063457600080fd5b803590602001918460208302840111600160201b8311171561065557600080fd5b91935091506001600160a01b03813516906020013561158f565b34801561067b57600080fd5b50610684611688565b604080516001600160a01b039092168252519081900360200190f35b3480156106ac57600080fd5b50610543600480360360608110156106c357600080fd5b50803590602081013590604001356116ac565b3480156106e257600080fd5b506101a9600480360360e08110156106f957600080fd5b506001600160a01b038135811691602081013582169160408201359160608101359160808201359160a08101359091169060c001356116c1565b34801561073f57600080fd5b50610684611905565b34801561075457600080fd5b506102586004803603604081101561076b57600080fd5b81359190810190604081016020820135600160201b81111561078c57600080fd5b82018360208201111561079e57600080fd5b803590602001918460208302840111600160201b831117156107bf57600080fd5b919080806020026020016040519081016040528093929190818152602001838360200280828437600092019190915250929550611929945050505050565b34801561080957600080fd5b506101a9600480360361014081101561082157600080fd5b506001600160a01b0381358116916020810135916040820135916060810135916080820135169060a08101359060c081013515159060ff60e08201351690610100810135906101200135611956565b34801561087c57600080fd5b506108d2600480360361010081101561089457600080fd5b506001600160a01b038135811691602081013582169160408201359160608101359160808201359160a08101359160c0820135169060e00135611a6a565b60408051938452602084019290925282820152519081900360600190f35b6108d2600480360360c081101561090657600080fd5b506001600160a01b0381358116916020810135916040820135916060810135916080820135169060a00135611ba6565b6102586004803603608081101561094c57600080fd5b81359190810190604081016020820135600160201b81111561096d57600080fd5b82018360208201111561097f57600080fd5b803590602001918460208302840111600160201b831117156109a057600080fd5b91935091506001600160a01b038135169060200135611e4b565b6000808242811015610a01576040805162461bcd60e51b81526020600482015260166024820152600080516020613491833981519152604482015290519081900360640190fd5b610a30897f00000000000000000000000000000000000000000000000000000000000000008a8a8a308a6116c1565b9093509150610a408986856121cd565b7f00000000000000000000000000000000000000000000000000000000000000006001600160a01b0316632e1a7d4d836040518263ffffffff1660e01b815260040180828152602001915050600060405180830381600087803b158015610aa657600080fd5b505af1158015610aba573d6000803e3d6000fd5b50505050610ac88583612321565b50965096945050505050565b60608142811015610b1a576040805162461bcd60e51b81526020600482015260166024820152600080516020613491833981519152604482015290519081900360640190fd5b6001600160a01b037f00000000000000000000000000000000000000000000000000000000000000001686866000198101818110610b5457fe5b905060200201356001600160a01b03166001600160a01b031614610bad576040805162461bcd60e51b815260206004820152601b6024820152600080516020613593833981519152604482015290519081900360640190fd5b610c0b7f00000000000000000000000000000000000000000000000000000000000000008988888080602002602001604051908101604052809392919081815260200183836020028082843760009201919091525061241992505050565b91508682600184510381518110610c1e57fe5b60200260200101511015610c635760405162461bcd60e51b815260040180806020018281038252602981526020018061340b6029913960400191505060405180910390fd5b610d0186866000818110610c7357fe5b905060200201356001600160a01b031633610ce77f00000000000000000000000000000000000000000000000000000000000000008a8a6000818110610cb557fe5b905060200201356001600160a01b03168b8b6001818110610cd257fe5b905060200201356001600160a01b0316612599565b85600081518110610cf457fe5b6020026020010151612659565b610d40828787808060200260200160405190810160405280939291908181526020018383602002808284376000920191909152503092506127b6915050565b7f00000000000000000000000000000000000000000000000000000000000000006001600160a01b0316632e1a7d4d83600185510381518110610d7f57fe5b60200260200101516040518263ffffffff1660e01b815260040180828152602001915050600060405180830381600087803b158015610dbd57600080fd5b505af1158015610dd1573d6000803e3d6000fd5b50505050610df68483600185510381518110610de957fe5b6020026020010151612321565b509695505050505050565b6060610e2e7f000000000000000000000000000000000000000000000000000000000000000084846129fc565b90505b92915050565b6000806000610e677f00000000000000000000000000000000000000000000000000000000000000008f8f612599565b9050600087610e76578c610e7a565b6000195b6040805163d505accf60e01b815233600482015230602482015260448101839052606481018c905260ff8a16608482015260a4810189905260c4810188905290519192506001600160a01b0384169163d505accf9160e48082019260009290919082900301818387803b158015610ef057600080fd5b505af1158015610f04573d6000803e3d6000fd5b50505050610f178f8f8f8f8f8f8f6116c1565b809450819550505050509b509b9950505050505050505050565b60608142811015610f77576040805162461bcd60e51b81526020600482015260166024820152600080516020613491833981519152604482015290519081900360640190fd5b610fd57f00000000000000000000000000000000000000000000000000000000000000008988888080602002602001604051908101604052809392919081815260200183836020028082843760009201919091525061241992505050565b91508682600184510381518110610fe857fe5b6020026020010151101561102d5760405162461bcd60e51b815260040180806020018281038252602981526020018061340b6029913960400191505060405180910390fd5b61103d86866000818110610c7357fe5b610df6828787808060200260200160405190810160405280939291908181526020018383602002808284376000920191909152508992506127b6915050565b606081428110156110c2576040805162461bcd60e51b81526020600482015260166024820152600080516020613491833981519152604482015290519081900360640190fd5b6001600160a01b037f000000000000000000000000000000000000000000000000000000000000000016868660001981018181106110fc57fe5b905060200201356001600160a01b03166001600160a01b031614611155576040805162461bcd60e51b815260206004820152601b6024820152600080516020613593833981519152604482015290519081900360640190fd5b6111b37f0000000000000000000000000000000000000000000000000000000000000000898888808060200260200160405190810160405280939291908181526020018383602002808284376000920191909152506129fc92505050565b915086826000815181106111c357fe5b60200260200101511115610c635760405162461bcd60e51b81526004018080602001828103825260258152602001806135416025913960400191505060405180910390fd5b600061121685858585612b5b565b95945050505050565b60608142811015611265576040805162461bcd60e51b81526020600482015260166024820152600080516020613491833981519152604482015290519081900360640190fd5b7f00000000000000000000000000000000000000000000000000000000000000006001600160a01b03168686600081811061129c57fe5b905060200201356001600160a01b03166001600160a01b0316146112f5576040805162461bcd60e51b815260206004820152601b6024820152600080516020613593833981519152604482015290519081900360640190fd5b6113537f00000000000000000000000000000000000000000000000000000000000000003488888080602002602001604051908101604052809392919081815260200183836020028082843760009201919091525061241992505050565b9150868260018451038151811061136657fe5b602002602001015110156113ab5760405162461bcd60e51b815260040180806020018281038252602981526020018061340b6029913960400191505060405180910390fd5b7f00000000000000000000000000000000000000000000000000000000000000006001600160a01b031663d0e30db0836000815181106113e757fe5b60200260200101516040518263ffffffff1660e01b81526004016000604051808303818588803b15801561141a57600080fd5b505af115801561142e573d6000803e3d6000fd5b50505050507f00000000000000000000000000000000000000000000000000000000000000006001600160a01b031663a9059cbb6114b07f00000000000000000000000000000000000000000000000000000000000000008989600081811061149357fe5b905060200201356001600160a01b03168a8a6001818110610cd257fe5b846000815181106114bd57fe5b60200260200101516040518363ffffffff1660e01b815260040180836001600160a01b03166001600160a01b0316815260200182815260200192505050602060405180830381600087803b15801561151457600080fd5b505af1158015611528573d6000803e3d6000fd5b505050506040513d602081101561153e57600080fd5b505161154657fe5b611585828787808060200260200160405190810160405280939291908181526020018383602002808284376000920191909152508992506127b6915050565b5095945050505050565b606081428110156115d5576040805162461bcd60e51b81526020600482015260166024820152600080516020613491833981519152604482015290519081900360640190fd5b6116337f0000000000000000000000000000000000000000000000000000000000000000898888808060200260200160405190810160405280939291908181526020018383602002808284376000920191909152506129fc92505050565b9150868260008151811061164357fe5b6020026020010151111561102d5760405162461bcd60e51b81526004018080602001828103825260258152602001806135416025913960400191505060405180910390fd5b7f000000000000000000000000000000000000000000000000000000000000000081565b60006116b9848484612c5c565b949350505050565b6000808242811015611708576040805162461bcd60e51b81526020600482015260166024820152600080516020613491833981519152604482015290519081900360640190fd5b60006117357f00000000000000000000000000000000000000000000000000000000000000008c8c612599565b604080516323b872dd60e01b81523360048201526001600160a01b03831660248201819052604482018d9052915192935090916323b872dd916064808201926020929091908290030181600087803b15801561179057600080fd5b505af11580156117a4573d6000803e3d6000fd5b505050506040513d60208110156117ba57600080fd5b50506040805163226bf2d160e21b81526001600160a01b03888116600483015282516000938493928616926389afcb44926024808301939282900301818787803b15801561180757600080fd5b505af115801561181b573d6000803e3d6000fd5b505050506040513d604081101561183157600080fd5b5080516020909101519092509050600061184b8e8e612d08565b509050806001600160a01b03168e6001600160a01b03161461186e578183611871565b82825b90975095508a8710156118b55760405162461bcd60e51b81526004018080602001828103825260248152602001806133b66024913960400191505060405180910390fd5b898610156118f45760405162461bcd60e51b815260040180806020018281038252602481526020018061351d6024913960400191505060405180910390fd5b505050505097509795505050505050565b7f000000000000000000000000000000000000000000000000000000000000000081565b6060610e2e7f00000000000000000000000000000000000000000000000000000000000000008484612419565b60008060006119a67f00000000000000000000000000000000000000000000000000000000000000008e7f0000000000000000000000000000000000000000000000000000000000000000612599565b90506000876119b5578c6119b9565b6000195b6040805163d505accf60e01b815233600482015230602482015260448101839052606481018c905260ff8a16608482015260a4810189905260c4810188905290519192506001600160a01b0384169163d505accf9160e48082019260009290919082900301818387803b158015611a2f57600080fd5b505af1158015611a43573d6000803e3d6000fd5b50505050611a558e8e8e8e8e8e6109ba565b909f909e509c50505050505050505050505050565b60008060008342811015611ab3576040805162461bcd60e51b81526020600482015260166024820152600080516020613491833981519152604482015290519081900360640190fd5b611ac18c8c8c8c8c8c612de6565b90945092506000611af37f00000000000000000000000000000000000000000000000000000000000000008e8e612599565b9050611b018d338388612659565b611b0d8c338387612659565b806001600160a01b0316636a627842886040518263ffffffff1660e01b815260040180826001600160a01b03166001600160a01b03168152602001915050602060405180830381600087803b158015611b6557600080fd5b505af1158015611b79573d6000803e3d6000fd5b505050506040513d6020811015611b8f57600080fd5b5051949d939c50939a509198505050505050505050565b60008060008342811015611bef576040805162461bcd60e51b81526020600482015260166024820152600080516020613491833981519152604482015290519081900360640190fd5b611c1d8a7f00000000000000000000000000000000000000000000000000000000000000008b348c8c612de6565b90945092506000611c6f7f00000000000000000000000000000000000000000000000000000000000000008c7f0000000000000000000000000000000000000000000000000000000000000000612599565b9050611c7d8b338388612659565b7f00000000000000000000000000000000000000000000000000000000000000006001600160a01b031663d0e30db0856040518263ffffffff1660e01b81526004016000604051808303818588803b158015611cd857600080fd5b505af1158015611cec573d6000803e3d6000fd5b50505050507f00000000000000000000000000000000000000000000000000000000000000006001600160a01b031663a9059cbb82866040518363ffffffff1660e01b815260040180836001600160a01b03166001600160a01b0316815260200182815260200192505050602060405180830381600087803b158015611d7157600080fd5b505af1158015611d85573d6000803e3d6000fd5b505050506040513d6020811015611d9b57600080fd5b5051611da357fe5b806001600160a01b0316636a627842886040518263ffffffff1660e01b815260040180826001600160a01b03166001600160a01b03168152602001915050602060405180830381600087803b158015611dfb57600080fd5b505af1158015611e0f573d6000803e3d6000fd5b505050506040513d6020811015611e2557600080fd5b5051925034841015611e3d57611e3d33853403612321565b505096509650969350505050565b60608142811015611e91576040805162461bcd60e51b81526020600482015260166024820152600080516020613491833981519152604482015290519081900360640190fd5b7f00000000000000000000000000000000000000000000000000000000000000006001600160a01b031686866000818110611ec857fe5b905060200201356001600160a01b03166001600160a01b031614611f21576040805162461bcd60e51b815260206004820152601b6024820152600080516020613593833981519152604482015290519081900360640190fd5b611f7f7f0000000000000000000000000000000000000000000000000000000000000000888888808060200260200160405190810160405280939291908181526020018383602002808284376000920191909152506129fc92505050565b91503482600081518110611f8f57fe5b60200260200101511115611fd45760405162461bcd60e51b81526004018080602001828103825260258152602001806135416025913960400191505060405180910390fd5b7f00000000000000000000000000000000000000000000000000000000000000006001600160a01b031663d0e30db08360008151811061201057fe5b60200260200101516040518263ffffffff1660e01b81526004016000604051808303818588803b15801561204357600080fd5b505af1158015612057573d6000803e3d6000fd5b50505050507f00000000000000000000000000000000000000000000000000000000000000006001600160a01b031663a9059cbb6120bc7f00000000000000000000000000000000000000000000000000000000000000008989600081811061149357fe5b846000815181106120c957fe5b60200260200101516040518363ffffffff1660e01b815260040180836001600160a01b03166001600160a01b0316815260200182815260200192505050602060405180830381600087803b15801561212057600080fd5b505af1158015612134573d6000803e3d6000fd5b505050506040513d602081101561214a57600080fd5b505161215257fe5b612191828787808060200260200160405190810160405280939291908181526020018383602002808284376000920191909152508992506127b6915050565b8160008151811061219e57fe5b60200260200101513411156115855761158533836000815181106121be57fe5b60200260200101513403612321565b604080516001600160a01b038481166024830152604480830185905283518084039091018152606490920183526020820180516001600160e01b031663a9059cbb60e01b178152925182516000946060949389169392918291908083835b6020831061224a5780518252601f19909201916020918201910161222b565b6001836020036101000a0380198251168184511680821785525050505050509050019150506000604051808303816000865af19150503d80600081146122ac576040519150601f19603f3d011682016040523d82523d6000602084013e6122b1565b606091505b50915091508180156122df5750805115806122df57508080602001905160208110156122dc57600080fd5b50515b61231a5760405162461bcd60e51b815260040180806020018281038252602d815260200180613566602d913960400191505060405180910390fd5b5050505050565b604080516000808252602082019092526001600160a01b0384169083906040518082805190602001908083835b6020831061236d5780518252601f19909201916020918201910161234e565b6001836020036101000a03801982511681845116808217855250505050505090500191505060006040518083038185875af1925050503d80600081146123cf576040519150601f19603f3d011682016040523d82523d6000602084013e6123d4565b606091505b50509050806124145760405162461bcd60e51b81526004018080602001828103825260348152602001806134346034913960400191505060405180910390fd5b505050565b6060600282511015612472576040805162461bcd60e51b815260206004820152601c60248201527f446f6765736f6e4c6962726172793a20494e56414c49445f5041544800000000604482015290519081900360640190fd5b815167ffffffffffffffff8111801561248a57600080fd5b506040519080825280602002602001820160405280156124b4578160200160208202803683370190505b50905082816000815181106124c557fe5b60200260200101818152505060005b600183510381101561259157600080612517878685815181106124f357fe5b602002602001015187866001018151811061250a57fe5b602002602001015161305a565b9150915061256d84848151811061252a57fe5b602002602001015183836125688b8a898151811061254457fe5b60200260200101518b8a6001018151811061255b57fe5b6020026020010151613134565b612b5b565b84846001018151811061257c57fe5b602090810291909101015250506001016124d4565b509392505050565b60008060006125a88585612d08565b604080516bffffffffffffffffffffffff19606094851b811660208084019190915293851b81166034830152825160288184030181526048830184528051908501206001600160f81b031960688401529a90941b9093166069840152607d8301989098527fa2ce3d0e514cdb57c22b91f662b1e55744b9fb8b679c71ea97804d118ac25a2d609d808401919091528851808403909101815260bd909201909752805196019590952095945050505050565b604080516001600160a01b0385811660248301528481166044830152606480830185905283518084039091018152608490920183526020820180516001600160e01b03166323b872dd60e01b17815292518251600094606094938a169392918291908083835b602083106126de5780518252601f1990920191602091820191016126bf565b6001836020036101000a0380198251168184511680821785525050505050509050019150506000604051808303816000865af19150503d8060008114612740576040519150601f19603f3d011682016040523d82523d6000602084013e612745565b606091505b5091509150818015612773575080511580612773575080806020019051602081101561277057600080fd5b50515b6127ae5760405162461bcd60e51b81526004018080602001828103825260318152602001806133da6031913960400191505060405180910390fd5b505050505050565b60005b60018351038110156129f6576000808483815181106127d457fe5b60200260200101518584600101815181106127eb57fe5b60200260200101519150915060006128038383612d08565b509050600087856001018151811061281757fe5b60200260200101519050600080836001600160a01b0316866001600160a01b03161461284557826000612849565b6000835b91509150600060028a5103881061286057886128a1565b6128a17f0000000000000000000000000000000000000000000000000000000000000000878c8b6002018151811061289457fe5b6020026020010151612599565b90506128ce7f00000000000000000000000000000000000000000000000000000000000000008888612599565b6001600160a01b031663022c0d9f84848460006040519080825280601f01601f19166020018201604052801561290b576020820181803683370190505b506040518563ffffffff1660e01b815260040180858152602001848152602001836001600160a01b03166001600160a01b0316815260200180602001828103825283818151815260200191508051906020019080838360005b8381101561297c578181015183820152602001612964565b50505050905090810190601f1680156129a95780820380516001836020036101000a031916815260200191505b5095505050505050600060405180830381600087803b1580156129cb57600080fd5b505af11580156129df573d6000803e3d6000fd5b5050600190990198506127b9975050505050505050565b50505050565b6060600282511015612a55576040805162461bcd60e51b815260206004820152601c60248201527f446f6765736f6e4c6962726172793a20494e56414c49445f5041544800000000604482015290519081900360640190fd5b815167ffffffffffffffff81118015612a6d57600080fd5b50604051908082528060200260200182016040528015612a97578160200160208202803683370190505b5090508281600183510381518110612aab57fe5b60209081029190910101528151600019015b801561259157600080612aed87866001860381518110612ad957fe5b602002602001015187868151811061250a57fe5b91509150612b36848481518110612b0057fe5b60200260200101518383612b318b8a60018a0381518110612b1d57fe5b60200260200101518b8a8151811061255b57fe5b6131b3565b846001850381518110612b4557fe5b6020908102919091010152505060001901612abd565b6000808511612b9b5760405162461bcd60e51b81526004018080602001828103825260298152602001806134686029913960400191505060405180910390fd5b600084118015612bab5750600083115b612be65760405162461bcd60e51b81526004018080602001828103825260268152602001806134f76026913960400191505060405180910390fd5b6000612c0a612bfd6103e88563ffffffff6132b316565b879063ffffffff61330316565b90506000612c1e828663ffffffff61330316565b90506000612c4483612c38896103e863ffffffff61330316565b9063ffffffff61336616565b9050808281612c4f57fe5b0498975050505050505050565b6000808411612c9c5760405162461bcd60e51b81526004018080602001828103825260238152602001806134d46023913960400191505060405180910390fd5b600083118015612cac5750600082115b612ce75760405162461bcd60e51b81526004018080602001828103825260268152602001806134f76026913960400191505060405180910390fd5b82612cf8858463ffffffff61330316565b81612cff57fe5b04949350505050565b600080826001600160a01b0316846001600160a01b03161415612d5c5760405162461bcd60e51b81526004018080602001828103825260238152602001806134b16023913960400191505060405180910390fd5b826001600160a01b0316846001600160a01b031610612d7c578284612d7f565b83835b90925090506001600160a01b038216612ddf576040805162461bcd60e51b815260206004820152601c60248201527f446f6765736f6e4c6962726172793a205a45524f5f4144445245535300000000604482015290519081900360640190fd5b9250929050565b6040805163e6a4390560e01b81526001600160a01b03888116600483015287811660248301529151600092839283927f00000000000000000000000000000000000000000000000000000000000000009092169163e6a4390591604480820192602092909190829003018186803b158015612e6057600080fd5b505afa158015612e74573d6000803e3d6000fd5b505050506040513d6020811015612e8a57600080fd5b50516001600160a01b03161415612f3d57604080516364e329cb60e11b81526001600160a01b038a81166004830152898116602483015291517f00000000000000000000000000000000000000000000000000000000000000009092169163c9c65396916044808201926020929091908290030181600087803b158015612f1057600080fd5b505af1158015612f24573d6000803e3d6000fd5b505050506040513d6020811015612f3a57600080fd5b50505b600080612f6b7f00000000000000000000000000000000000000000000000000000000000000008b8b61305a565b91509150816000148015612f7d575080155b15612f8d5787935086925061304d565b6000612f9a898484612c5c565b9050878111612fed5785811015612fe25760405162461bcd60e51b815260040180806020018281038252602481526020018061351d6024913960400191505060405180910390fd5b88945092508261304b565b6000612ffa898486612c5c565b90508981111561300657fe5b878110156130455760405162461bcd60e51b81526004018080602001828103825260248152602001806133b66024913960400191505060405180910390fd5b94508793505b505b5050965096945050505050565b60008060006130698585612d08565b509050613077868686612599565b50600080613086888888612599565b6001600160a01b0316630902f1ac6040518163ffffffff1660e01b815260040160606040518083038186803b1580156130be57600080fd5b505afa1580156130d2573d6000803e3d6000fd5b505050506040513d60608110156130e857600080fd5b5080516020909101516dffffffffffffffffffffffffffff91821693501690506001600160a01b0387811690841614613122578082613125565b81815b90999098509650505050505050565b6000613141848484612599565b6001600160a01b03166354cf2aeb6040518163ffffffff1660e01b815260040160206040518083038186803b15801561317957600080fd5b505afa15801561318d573d6000803e3d6000fd5b505050506040513d60208110156131a357600080fd5b505163ffffffff16949350505050565b60008085116131f35760405162461bcd60e51b815260040180806020018281038252602a8152602001806135b3602a913960400191505060405180910390fd5b6000841180156132035750600083115b61323e5760405162461bcd60e51b81526004018080602001828103825260268152602001806134f76026913960400191505060405180910390fd5b60006132626103e8613256878963ffffffff61330316565b9063ffffffff61330316565b9050600061328b61327b6103e88663ffffffff6132b316565b613256878a63ffffffff6132b316565b90506132a8600182848161329b57fe5b049063ffffffff61336616565b979650505050505050565b80820382811115610e31576040805162461bcd60e51b815260206004820152601560248201527464732d6d6174682d7375622d756e646572666c6f7760581b604482015290519081900360640190fd5b600081158061331e5750508082028282828161331b57fe5b04145b610e31576040805162461bcd60e51b815260206004820152601460248201527364732d6d6174682d6d756c2d6f766572666c6f7760601b604482015290519081900360640190fd5b80820182811015610e31576040805162461bcd60e51b815260206004820152601460248201527364732d6d6174682d6164642d6f766572666c6f7760601b604482015290519081900360640190fdfe446f6765736f6e526f757465723a20494e53554646494349454e545f415f414d4f554e545472616e7366657248656c7065723a3a7472616e7366657246726f6d3a207472616e7366657246726f6d206661696c6564446f6765736f6e526f757465723a20494e53554646494349454e545f4f55545055545f414d4f554e545472616e7366657248656c7065723a3a736166655472616e736665724554483a20455448207472616e73666572206661696c6564446f6765736f6e4c6962726172793a20494e53554646494349454e545f494e5055545f414d4f554e54446f6765736f6e526f757465723a204558504952454400000000000000000000446f6765736f6e4c6962726172793a204944454e544943414c5f414444524553534553446f6765736f6e4c6962726172793a20494e53554646494349454e545f414d4f554e54446f6765736f6e4c6962726172793a20494e53554646494349454e545f4c4951554944495459446f6765736f6e526f757465723a20494e53554646494349454e545f425f414d4f554e54446f6765736f6e526f757465723a204558434553534956455f494e5055545f414d4f554e545472616e7366657248656c7065723a3a736166655472616e736665723a207472616e73666572206661696c6564446f6765736f6e526f757465723a20494e56414c49445f504154480000000000446f6765736f6e4c6962726172793a20494e53554646494349454e545f4f55545055545f414d4f554e54a264697066735822122038272cc151836346dc4eb9c008a5df25117aeff76166defe29bc6b701fa90fd264736f6c63430006060033",
  "immutableReferences": {
    "2235": [
      {
        "length": 32,
        "start": 2994
      },
      {
        "length": 32,
        "start": 3209
      },
      {
        "length": 32,
        "start": 3592
      },
      {
        "length": 32,
        "start": 3649
      },
      {
        "length": 32,
        "start": 3964
      },
      {
        "length": 32,
        "start": 4442
      },
      {
        "length": 32,
        "start": 4858
      },
      {
        "length": 32,
        "start": 5223
      },
      {
        "length": 32,
        "start": 5594
      },
      {
        "length": 32,
        "start": 5903
      },
      {
        "length": 32,
        "start": 6407
      },
      {
        "length": 32,
        "start": 6448
      },
      {
        "length": 32,
        "start": 6496
      },
      {
        "length": 32,
        "start": 6861
      },
      {
        "length": 32,
        "start": 7209
      },
      {
        "length": 32,
        "start": 7974
      },
      {
        "length": 32,
        "start": 8336
      },
      {
        "length": 32,
        "start": 10341
      },
      {
        "length": 32,
        "start": 10408
      },
      {
        "length": 32,
        "start": 11799
      },
      {
        "length": 32,
        "start": 11973
      },
      {
        "length": 32,
        "start": 12101
      }
    ],
    "2238": [
      {
        "length": 32,
        "start": 296
      },
      {
        "length": 32,
        "start": 2567
      },
      {
        "length": 32,
        "start": 2626
      },
      {
        "length": 32,
        "start": 2852
      },
      {
        "length": 32,
        "start": 3394
      },
      {
        "length": 32,
        "start": 4300
      },
      {
        "length": 32,
        "start": 4711
      },
      {
        "length": 32,
        "start": 5037
      },
      {
        "length": 32,
        "start": 5173
      },
      {
        "length": 32,
        "start": 5770
      },
      {
        "length": 32,
        "start": 6530
      },
      {
        "length": 32,
        "start": 7157
      },
      {
        "length": 32,
        "start": 7243
      },
      {
        "length": 32,
        "start": 7295
      },
      {
        "length": 32,
        "start": 7411
      },
      {
        "length": 32,
        "start": 7827
      },
      {
        "length": 32,
        "start": 8150
      },
      {
        "length": 32,
        "start": 8286
      }
    ]
  },
  "source": "pragma solidity =0.6.6;\n\nimport './interfaces/IDogesonFactory.sol';\nimport './libraries/TransferHelper.sol';\n\nimport './libraries/DogesonLibrary.sol';\nimport './interfaces/IDogesonRouter01.sol';\nimport './interfaces/IERC20.sol';\nimport './interfaces/IWETH.sol';\n\ncontract DogesonRouter01 is IDogesonRouter01 {\n    address public immutable override factory;\n    address public immutable override WETH;\n\n    modifier ensure(uint deadline) {\n        require(deadline >= block.timestamp, 'DogesonRouter: EXPIRED');\n        _;\n    }\n\n    constructor(address _factory, address _WETH) public {\n        factory = _factory;\n        WETH = _WETH;\n    }\n\n    receive() external payable {\n        assert(msg.sender == WETH); // only accept ETH via fallback from the WETH contract\n    }\n\n    // **** ADD LIQUIDITY ****\n    function _addLiquidity(\n        address tokenA,\n        address tokenB,\n        uint amountADesired,\n        uint amountBDesired,\n        uint amountAMin,\n        uint amountBMin\n    ) private returns (uint amountA, uint amountB) {\n        // create the pair if it doesn't exist yet\n        if (IDogesonFactory(factory).getPair(tokenA, tokenB) == address(0)) {\n            IDogesonFactory(factory).createPair(tokenA, tokenB);\n        }\n        (uint reserveA, uint reserveB) = DogesonLibrary.getReserves(factory, tokenA, tokenB);\n        if (reserveA == 0 && reserveB == 0) {\n            (amountA, amountB) = (amountADesired, amountBDesired);\n        } else {\n            uint amountBOptimal = DogesonLibrary.quote(amountADesired, reserveA, reserveB);\n            if (amountBOptimal <= amountBDesired) {\n                require(amountBOptimal >= amountBMin, 'DogesonRouter: INSUFFICIENT_B_AMOUNT');\n                (amountA, amountB) = (amountADesired, amountBOptimal);\n            } else {\n                uint amountAOptimal = DogesonLibrary.quote(amountBDesired, reserveB, reserveA);\n                assert(amountAOptimal <= amountADesired);\n                require(amountAOptimal >= amountAMin, 'DogesonRouter: INSUFFICIENT_A_AMOUNT');\n                (amountA, amountB) = (amountAOptimal, amountBDesired);\n            }\n        }\n    }\n    function addLiquidity(\n        address tokenA,\n        address tokenB,\n        uint amountADesired,\n        uint amountBDesired,\n        uint amountAMin,\n        uint amountBMin,\n        address to,\n        uint deadline\n    ) external override ensure(deadline) returns (uint amountA, uint amountB, uint liquidity) {\n        (amountA, amountB) = _addLiquidity(tokenA, tokenB, amountADesired, amountBDesired, amountAMin, amountBMin);\n        address pair = DogesonLibrary.pairFor(factory, tokenA, tokenB);\n        TransferHelper.safeTransferFrom(tokenA, msg.sender, pair, amountA);\n        TransferHelper.safeTransferFrom(tokenB, msg.sender, pair, amountB);\n        liquidity = IDogesonPair(pair).mint(to);\n    }\n    function addLiquidityETH(\n        address token,\n        uint amountTokenDesired,\n        uint amountTokenMin,\n        uint amountETHMin,\n        address to,\n        uint deadline\n    ) external override payable ensure(deadline) returns (uint amountToken, uint amountETH, uint liquidity) {\n        (amountToken, amountETH) = _addLiquidity(\n            token,\n            WETH,\n            amountTokenDesired,\n            msg.value,\n            amountTokenMin,\n            amountETHMin\n        );\n        address pair = DogesonLibrary.pairFor(factory, token, WETH);\n        TransferHelper.safeTransferFrom(token, msg.sender, pair, amountToken);\n        IWETH(WETH).deposit{value: amountETH}();\n        assert(IWETH(WETH).transfer(pair, amountETH));\n        liquidity = IDogesonPair(pair).mint(to);\n        if (msg.value > amountETH) TransferHelper.safeTransferETH(msg.sender, msg.value - amountETH); // refund dust eth, if any\n    }\n\n    // **** REMOVE LIQUIDITY ****\n    function removeLiquidity(\n        address tokenA,\n        address tokenB,\n        uint liquidity,\n        uint amountAMin,\n        uint amountBMin,\n        address to,\n        uint deadline\n    ) public override ensure(deadline) returns (uint amountA, uint amountB) {\n        address pair = DogesonLibrary.pairFor(factory, tokenA, tokenB);\n        IDogesonPair(pair).transferFrom(msg.sender, pair, liquidity); // send liquidity to pair\n        (uint amount0, uint amount1) = IDogesonPair(pair).burn(to);\n        (address token0,) = DogesonLibrary.sortTokens(tokenA, tokenB);\n        (amountA, amountB) = tokenA == token0 ? (amount0, amount1) : (amount1, amount0);\n        require(amountA >= amountAMin, 'DogesonRouter: INSUFFICIENT_A_AMOUNT');\n        require(amountB >= amountBMin, 'DogesonRouter: INSUFFICIENT_B_AMOUNT');\n    }\n    function removeLiquidityETH(\n        address token,\n        uint liquidity,\n        uint amountTokenMin,\n        uint amountETHMin,\n        address to,\n        uint deadline\n    ) public override ensure(deadline) returns (uint amountToken, uint amountETH) {\n        (amountToken, amountETH) = removeLiquidity(\n            token,\n            WETH,\n            liquidity,\n            amountTokenMin,\n            amountETHMin,\n            address(this),\n            deadline\n        );\n        TransferHelper.safeTransfer(token, to, amountToken);\n        IWETH(WETH).withdraw(amountETH);\n        TransferHelper.safeTransferETH(to, amountETH);\n    }\n    function removeLiquidityWithPermit(\n        address tokenA,\n        address tokenB,\n        uint liquidity,\n        uint amountAMin,\n        uint amountBMin,\n        address to,\n        uint deadline,\n        bool approveMax, uint8 v, bytes32 r, bytes32 s\n    ) external override returns (uint amountA, uint amountB) {\n        address pair = DogesonLibrary.pairFor(factory, tokenA, tokenB);\n        uint value = approveMax ? uint(-1) : liquidity;\n        IDogesonPair(pair).permit(msg.sender, address(this), value, deadline, v, r, s);\n        (amountA, amountB) = removeLiquidity(tokenA, tokenB, liquidity, amountAMin, amountBMin, to, deadline);\n    }\n    function removeLiquidityETHWithPermit(\n        address token,\n        uint liquidity,\n        uint amountTokenMin,\n        uint amountETHMin,\n        address to,\n        uint deadline,\n        bool approveMax, uint8 v, bytes32 r, bytes32 s\n    ) external override returns (uint amountToken, uint amountETH) {\n        address pair = DogesonLibrary.pairFor(factory, token, WETH);\n        uint value = approveMax ? uint(-1) : liquidity;\n        IDogesonPair(pair).permit(msg.sender, address(this), value, deadline, v, r, s);\n        (amountToken, amountETH) = removeLiquidityETH(token, liquidity, amountTokenMin, amountETHMin, to, deadline);\n    }\n\n    // **** SWAP ****\n    // requires the initial amount to have already been sent to the first pair\n    function _swap(uint[] memory amounts, address[] memory path, address _to) private {\n        for (uint i; i < path.length - 1; i++) {\n            (address input, address output) = (path[i], path[i + 1]);\n            (address token0,) = DogesonLibrary.sortTokens(input, output);\n            uint amountOut = amounts[i + 1];\n            (uint amount0Out, uint amount1Out) = input == token0 ? (uint(0), amountOut) : (amountOut, uint(0));\n            address to = i < path.length - 2 ? DogesonLibrary.pairFor(factory, output, path[i + 2]) : _to;\n            IDogesonPair(DogesonLibrary.pairFor(factory, input, output)).swap(amount0Out, amount1Out, to, new bytes(0));\n        }\n    }\n    function swapExactTokensForTokens(\n        uint amountIn,\n        uint amountOutMin,\n        address[] calldata path,\n        address to,\n        uint deadline\n    ) external override ensure(deadline) returns (uint[] memory amounts) {\n        amounts = DogesonLibrary.getAmountsOut(factory, amountIn, path);\n        require(amounts[amounts.length - 1] >= amountOutMin, 'DogesonRouter: INSUFFICIENT_OUTPUT_AMOUNT');\n        TransferHelper.safeTransferFrom(path[0], msg.sender, DogesonLibrary.pairFor(factory, path[0], path[1]), amounts[0]);\n        _swap(amounts, path, to);\n    }\n    function swapTokensForExactTokens(\n        uint amountOut,\n        uint amountInMax,\n        address[] calldata path,\n        address to,\n        uint deadline\n    ) external override ensure(deadline) returns (uint[] memory amounts) {\n        amounts = DogesonLibrary.getAmountsIn(factory, amountOut, path);\n        require(amounts[0] <= amountInMax, 'DogesonRouter: EXCESSIVE_INPUT_AMOUNT');\n        TransferHelper.safeTransferFrom(path[0], msg.sender, DogesonLibrary.pairFor(factory, path[0], path[1]), amounts[0]);\n        _swap(amounts, path, to);\n    }\n    function swapExactETHForTokens(uint amountOutMin, address[] calldata path, address to, uint deadline)\n        external\n        override\n        payable\n        ensure(deadline)\n        returns (uint[] memory amounts)\n    {\n        require(path[0] == WETH, 'DogesonRouter: INVALID_PATH');\n        amounts = DogesonLibrary.getAmountsOut(factory, msg.value, path);\n        require(amounts[amounts.length - 1] >= amountOutMin, 'DogesonRouter: INSUFFICIENT_OUTPUT_AMOUNT');\n        IWETH(WETH).deposit{value: amounts[0]}();\n        assert(IWETH(WETH).transfer(DogesonLibrary.pairFor(factory, path[0], path[1]), amounts[0]));\n        _swap(amounts, path, to);\n    }\n    function swapTokensForExactETH(uint amountOut, uint amountInMax, address[] calldata path, address to, uint deadline)\n        external\n        override\n        ensure(deadline)\n        returns (uint[] memory amounts)\n    {\n        require(path[path.length - 1] == WETH, 'DogesonRouter: INVALID_PATH');\n        amounts = DogesonLibrary.getAmountsIn(factory, amountOut, path);\n        require(amounts[0] <= amountInMax, 'DogesonRouter: EXCESSIVE_INPUT_AMOUNT');\n        TransferHelper.safeTransferFrom(path[0], msg.sender, DogesonLibrary.pairFor(factory, path[0], path[1]), amounts[0]);\n        _swap(amounts, path, address(this));\n        IWETH(WETH).withdraw(amounts[amounts.length - 1]);\n        TransferHelper.safeTransferETH(to, amounts[amounts.length - 1]);\n    }\n    function swapExactTokensForETH(uint amountIn, uint amountOutMin, address[] calldata path, address to, uint deadline)\n        external\n        override\n        ensure(deadline)\n        returns (uint[] memory amounts)\n    {\n        require(path[path.length - 1] == WETH, 'DogesonRouter: INVALID_PATH');\n        amounts = DogesonLibrary.getAmountsOut(factory, amountIn, path);\n        require(amounts[amounts.length - 1] >= amountOutMin, 'DogesonRouter: INSUFFICIENT_OUTPUT_AMOUNT');\n        TransferHelper.safeTransferFrom(path[0], msg.sender, DogesonLibrary.pairFor(factory, path[0], path[1]), amounts[0]);\n        _swap(amounts, path, address(this));\n        IWETH(WETH).withdraw(amounts[amounts.length - 1]);\n        TransferHelper.safeTransferETH(to, amounts[amounts.length - 1]);\n    }\n    function swapETHForExactTokens(uint amountOut, address[] calldata path, address to, uint deadline)\n        external\n        override\n        payable\n        ensure(deadline)\n        returns (uint[] memory amounts)\n    {\n        require(path[0] == WETH, 'DogesonRouter: INVALID_PATH');\n        amounts = DogesonLibrary.getAmountsIn(factory, amountOut, path);\n        require(amounts[0] <= msg.value, 'DogesonRouter: EXCESSIVE_INPUT_AMOUNT');\n        IWETH(WETH).deposit{value: amounts[0]}();\n        assert(IWETH(WETH).transfer(DogesonLibrary.pairFor(factory, path[0], path[1]), amounts[0]));\n        _swap(amounts, path, to);\n        if (msg.value > amounts[0]) TransferHelper.safeTransferETH(msg.sender, msg.value - amounts[0]); // refund dust eth, if any\n    }\n\n    function quote(uint amountA, uint reserveA, uint reserveB) public pure override returns (uint amountB) {\n        return DogesonLibrary.quote(amountA, reserveA, reserveB);\n    }\n\n    function getAmountOut(uint amountIn, uint reserveIn, uint reserveOut, uint swapFee) public pure override returns (uint amountOut) {\n        return DogesonLibrary.getAmountOut(amountIn, reserveIn, reserveOut, swapFee);\n    }\n\n    function getAmountIn(uint amountOut, uint reserveIn, uint reserveOut, uint swapFee) public pure override returns (uint amountIn) {\n        return DogesonLibrary.getAmountOut(amountOut, reserveIn, reserveOut, swapFee);\n    }\n\n    function getAmountsOut(uint amountIn, address[] memory path) public view override returns (uint[] memory amounts) {\n        return DogesonLibrary.getAmountsOut(factory, amountIn, path);\n    }\n\n    function getAmountsIn(uint amountOut, address[] memory path) public view override returns (uint[] memory amounts) {\n        return DogesonLibrary.getAmountsIn(factory, amountOut, path);\n    }\n}\n",
  "sourcePath": "R:/WorkRU/2021_Blockchain/Projects/20210712_Dogeson/02_src/pancake-swap/dogeson-swap-router-v1/contracts/DogesonRouter01.sol",
  "compiler": {
    "name": "solc",
    "version": "0.6.6+commit.6c089d02.Emscripten.clang"
  },
  "schemaVersion": "3.4.1",
  "updatedAt": "2021-07-22T06:46:38.208Z",
  "devdoc": {
    "methods": {}
  },
  "userdoc": {
    "methods": {}
  }
}